:100000000C945A010C948B010C948B010C948B0171
:100010000C948B010C948B010C948B010C948B0130
:100020000C948B010C94050A0C94050A0C94050A97
:100030000C948B010C94E70B0C948B010C948B01AA
:100040000C948B010C94B90B0C948B010C948B01C8
:100050000C948B010C948B010C948B010C94BB09B8
:100060000C948B010C9491090C9467090C948B01EE
:100070000C948B010C948B010C948B010C948B01D0
:100080000C948B0B0C948B010C948B010C948B01B6
:100090000C948B010C948B010C948B010C940F0A23
:1000A0000C948B010C948B010C945D0B0C948B01C4
:1000B0000C948B010C948B010C948B010C942F0BE2
:1000C0000C948B010C948B010C948B010C943D09C6
:1000D0000C9413090C948B010C94E9080C94BF0840
:1000E0000C948B010C9440030C9439030C94B401D0
:1000F0000C9477020C94C4020C943C040C9483047A
:100100000C94CE040C9470030C9458030C94790452
:100110000C941D020C9409020C9450030C942B03B4
:100120000C94A30D0C949C040C944B040C94FA01B5
:100130000C9454030C9462030C945F040C945504C7
:100140000C942B020C9431030C94BA040C943D03D0
:100150000C946F040C9434040C94C4040C94670441
:100160000C9435030C946C030C948F160C9466035A
:100170000C94B0040C94A6040C946B030C944A03E6
:100180000C9441040C9446030C945E030C948D046F
:1001900000002100240027002A002D003000330039
:1001A00001010000040107010A0100000A0B020915
:1001B0000C0D0E0807030401000000000000000001
:1001C000000000000000000000000000000000002F
:1001D00000000000000012111000000000000000EC
:1001E000000000000000000000000000000000000F
:1001F000000020002300260029002C002F003200E0
:100200000001000003010601090100002200250091
:1002100028002B002E0031003400020100000501EF
:1002200008010B0105050505070508080808020275
:1002300002020A0A08080404040401010101010180
:1002400001010303030303030303040707070C0C63
:100250000C0C0C0C0C0C020202020606060606062A
:1002600006060B0B0B0B0B0B0B0B010210202008CF
:100270000810204010204080020102010804020101
:100280000102040810204080804020100804020170
:1002900080040201804020100804020108040201C9
:1002A0000102040810204080010204081020408050
:1002B000A30D8F1611241FBECFEFD1E2DEBFCDBF3D
:1002C00000E00CBF12E0A0E0B2E0E8E0F5E300E0FF
:1002D0000BBF02C007900D92A839B107D9F728E0EB
:1002E000A8E9B2E001C01D92A435B207E1F711E020
:1002F000C9E5D1E000E006C021970109802FFE0189
:100300000E941C18C835D10780E00807A9F70E9491
:10031000AE0E0C94721A0C940000FC01A089B189F5
:1003200082E08C93A485B5851C92A685B78580E173
:100330008C93108EA489B58986E08C93A289B389A9
:100340008C9180618C93A289B3898C9188608C9305
:10035000A289B3898C9180688C930288F389E02DFF
:1003600080818F7D80830895AF92BF92CF92DF927C
:10037000EF92FF920F931F93CF93DF936C017B015A
:100380008B01040F151FEB015E01AE18BF08C017EB
:10039000D10759F06991D601ED91FC910190F0815E
:1003A000E02DC6011995892B79F7C501DF91CF9111
:1003B0001F910F91FF90EF90DF90CF90BF90AF9083
:1003C0000895FC01A089B1898C91A689B78982FD25
:1003D0000FC09C91818D8F5F8F73228D821749F0A2
:1003E000A18DAE0FBF2FB11D5D969C93818F089597
:1003F0008C910895FC01538D448D252F30E0842F7E
:1004000090E0821B930B541710F0CF96089501973C
:100410000895FC01918D828D981761F0A28DAE0F29
:10042000BF2FB11D5D968C91928D9F5F9F73928FB0
:1004300090E008958FEF9FEF0895FC01918D828DDC
:10044000981731F0828DE80FF11D858D90E00895A9
:100450008FEF9FEF0895FC01918D228D892F90E001
:10046000805C9F4F821B91098F739927089580E0CC
:1004700095E00E942B0221E0892B09F420E0822FD5
:1004800008958DE995E00E942B0221E0892B09F463
:1004900020E0822F08958AE396E00E942B0221E05B
:1004A000892B09F420E0822F0895FC01A48DA80F68
:1004B000B92FB11DA35ABF4F2C91848D90E00196A6
:1004C0008F739927848FA689B7892C93A089B189C6
:1004D0008C91837080648C93938D848D981306C067
:1004E0000288F389E02D80818F7D80830895EF92CB
:1004F000FF920F931F93CF93DF93EC0181E0888FDE
:100500009B8D8C8D98131AC0E889F989808185FFAD
:1005100015C09FB7F894EE89FF896083E889F9894F
:1005200080818370806480839FBF81E090E0DF9151
:10053000CF911F910F91FF90EF900895F62E0B8DA4
:1005400010E00F5F1F4F0F731127E02E8C8D8E115F
:100550000CC00FB607FCFACFE889F989808185FFC6
:10056000F5CFCE010E945502F1CFEB8DEC0FFD2FA0
:10057000F11DE35AFF4FF0829FB7F8940B8FEA8981
:10058000FB8980818062CFCFCF93DF93EC01888D90
:100590008823B9F0AA89BB89E889F9898C9185FDFE
:1005A00003C0808186FD0DC00FB607FCF7CF8C918C
:1005B00085FFF2CF808185FFEDCFCE010E945502ED
:1005C000E9CFDF91CF91089580E090E0892B29F069
:1005D0000E944B0281110E94000080E090E0892B74
:1005E00049F080E090E0892B29F00E940000811101
:1005F0000E94000080E090E0892B29F00E944102D7
:1006000081110E94000080E090E0892B29F00E9477
:10061000370281110C94000008958150823108F056
:100620005AC0E82FF0E08827E75EFC4F8F4F0C940C
:100630001C1839033D032B03310335036B034003BF
:1006400046034A035003540358035E0362036B03DB
:1006500066036C037003809180008F778093800025
:100660000895809180008F7DF9CF80918000877FF1
:10067000F5CF84B58F7784BD089584B58F7DFBCF8A
:100680008091B0008F778093B00008958091B00082
:100690008F7DF9CF809190008F778093900008959F
:1006A000809190008F7DF9CF80919000877FF5CF6A
:1006B0008091A0008F778093A00008958091A00082
:1006C0008F7DF9CF8091A000877FF5CF80912001A9
:1006D0008F77809320010895809120018F7DF9CF3D
:1006E00080912001877FF5CFCF93DF93282F30E0D3
:1006F000F901E655FE4F8491F901E659FD4FD49179
:10070000F901EC5DFD4FC491CC23A1F081110E9451
:100710000D03EC2FF0E0EE0FFF1FE051FE4FA5910F
:10072000B491EC91ED2381E090E009F480E0DF9159
:10073000CF91089580E090E0FACF1F93CF93DF939D
:10074000282F30E0F901E655FE4F8491F901E65972
:10075000FD4FD491F901EC5DFD4FC491CC23A9F07C
:10076000162F81110E940D03EC2FF0E0EE0FFF1FFA
:10077000E65FFD4FA591B4918FB7F894EC911111FC
:1007800008C0D095DE23DC938FBFDF91CF911F91FE
:100790000895DE2BF8CFCF93DF9390E0FC01E6596C
:1007A000FD4F24918C5D9D4FFC0184918823D1F0F5
:1007B00090E0880F991FFC01E057FE4FA591B4917E
:1007C000FC01E65FFD4FC591D49161110EC09FB74A
:1007D000F8948C91E22FE0958E238C932881E2236C
:1007E000E8839FBFDF91CF9108958FB7F894EC9184
:1007F000E22BEC938FBFF6CF1F93CF93DF93182F8D
:10080000EB0161E00E94CB03209739F460E0812F77
:10081000DF91CF911F910C949D03CF3FD10511F42F
:1008200061E0F5CFE12FF0E0E655FE4FE491E150B5
:10083000E23108F0B3C0F0E08827EE5DFB4F8F4F48
:100840000C941C1834043C0441044B045504CE049D
:100850005F0467046F04790483048D049C04A60478
:10086000CE04B004BA04C40484B5806884BDC7BD96
:10087000DF91CF911F91089584B5806284BDC8BD7A
:10088000F7CF80918000806880938000D0938900AA
:10089000C0938800EDCF80918000806280938000BB
:1008A000D0938B00C0938A00E3CF80918000886052
:1008B00080938000D0938D00C0938C00D9CF80911D
:1008C000B00080688093B000C093B300D1CF809116
:1008D000B00080628093B000C093B400C9CF809113
:1008E0009000806880939000D0939900C093980006
:1008F000BFCF80919000806280939000D0939B0046
:10090000C0939A00B5CF809190008860809390004A
:10091000D0939D00C0939C00ABCF8091A0008068D5
:100920008093A0008091A0008F7B8093A000D09343
:10093000A900C093A8009CCF8091A0008062809302
:10094000A000D093AB00C093AA0092CF8091A000EA
:1009500088608093A000D093AD00C093AC0088CF96
:1009600080912001806880932001D0932901C09359
:1009700028017ECF80912001806280932001D09356
:100980002B01C0932A0174CF80912001886080934D
:100990002001D0932D01C0932C016ACFC038D1051E
:1009A0000CF03ECF33CF3FB7F89480912304909161
:1009B0002404A0912504B091260426B5A89B05C067
:1009C0002F3F19F00196A11DB11D3FBFBA2FA92FCE
:1009D000982F8827BC01CD01620F711D811D911DCB
:1009E00042E0660F771F881F991F4A95D1F7089537
:1009F0008F929F92AF92BF92CF92DF92EF92FF922F
:100A00004B015C010E94D3046B017C010E94D30462
:100A10006C197D098E099F09683E73408105910517
:100A2000A8F321E0821A9108A108B10888EEC80E47
:100A300083E0D81EE11CF11C81149104A104B104CF
:100A400029F7FF90EF90DF90CF90BF90AF909F90ED
:100A50008F9008952FB7F89460911F04709120042F
:100A600080912104909122042FBF08952091D203F8
:100A7000260F3327331F21323105ECF42091F60382
:100A8000FC0190E080E0243069F082E00895A091BC
:100A9000D2032191AC014E545C4FA40FB52FB11D70
:100AA0002C930196861798F38091D203680F609378
:100AB000D20380E0089581E0089508958FEF9FEFBD
:100AC00008958FEF9FEF08958091AB0390E091958B
:100AD000819591090895CF93DF93CB01EA01642FAB
:100AE0000E943605CE01DF91CF910895CF93DF9319
:100AF0001F92CDB7DEB7698361E0CE0101960E94F7
:100B0000360581E090E00F90DF91CF910895CF936B
:100B1000DF93DB01EA01FC01E955FC4F40815CE019
:100B2000589F9001599F300D112447FF1CC011960A
:100B30001C921E9280818F5F80838081A901480F63
:100B4000511D87FD5A9557FF03C080818C30ACF052
:100B50008D919C911197049680349C4938F18D9128
:100B60009C91049625C08081A901480F511D87FDE5
:100B70005A9557FFDFCF8081DDCF8D919C914081C9
:100B8000240F311D47FD3A95D901AA0FBB1FA20FB3
:100B9000B31FA95EBC4F11962D913C91820F931FFC
:100BA000998388838081DF91CF91089580E49CE9C7
:100BB000998388838FEF8083F6CF0F931F93CF9312
:100BC000DF93362F272F6F3F710519F014F03FEF99
:100BD00020E0032F122F01302FEF120714F401E051
:100BE0001FEFFC012381348120173107D1F1EC0183
:100BF0001483038316161706A4F4818160E00E9413
:100C00009D038FE090E00197F1F7888161E00E94F9
:100C10009D038A81B801DF91CF911F910F910C94B0
:100C2000FC03672B91F0808160E00E949D038FE0C0
:100C300090E00197F1F7898161E00E949D038A812C
:100C400066277727601B710BE6CF818160E00E94E9
:100C50009D03888160E00E949D038A8170E060E0CE
:100C6000DACFDF91CF911F910F910895CF93DF934A
:100C7000EC0170E0FB01EE0FFF1FE60FF71FE75FCF
:100C8000FD4F808188838181898382818A838881E5
:100C900061E00E94CB03898161E00E94CB0384EF75
:100CA00091E09C838B83DF91CF91089590E080E069
:100CB0000895FC0184810E94740321E0892B09F4CA
:100CC00020E0822F0895EF92FF920F931F93CF930E
:100CD000DF93EC0180E0B0E0A0E0E881F981AE179D
:100CE000BF07D8F4AE171F06A8F4E82FF0E00A817A
:100CF0001B817F010E0D1F1DF80140830A811B819E
:100D00000E0D1F1DF80161830A811B81F701E00FA1
:100D1000F11F228311968D5FE0CF81E0DF91CF91AB
:100D20001F910F91FF90EF9008951092F2048AE3C3
:100D300096E00E942B021816190664F481E0809355
:100D4000F2041092C3048AE396E00E9409028093A1
:100D5000F10408958DE995E00E942B0218161906FA
:100D60004CF481E08093F20482E08093C3048DE927
:100D700095E0EBCF80E095E00E942B021816190653
:100D800044F781E08093F20483E08093C30480E021
:100D900095E0DBCF682F8091C304811104C08AE302
:100DA00096E00C947702823019F48DE995E0F9CF42
:100DB000833019F480E095E0F4CF08950F931F93EA
:100DC000CF93DF938B01D82FC92F82E00E94CA06F0
:100DD000C801AD2FBC2F8093C4049093C504A09389
:100DE000C604B093C7040E94CA06812F0E94CA0697
:100DF0008D2F0E94CA068C2FDF91CF911F910F91EA
:100E00000C94CA062091C304211105C081579B4F41
:100E1000FC0180810895223019F4855A9B4FF8CF48
:100E2000895D9B4F2330A1F308950F931F93CF93B8
:100E3000DF938C010E940207C8EAD2E08883C801D0
:100E400001960E94020789838091A8029091A902CD
:100E5000DF91CF911F910F910895CF92DF92EF9282
:100E6000FF920F931F93CF93DF938B01080F191FEE
:100E70007801E40EF51E681B790B6B01C41AD50AC4
:100E8000EB01C40FD51F041B150B6AE085E297E048
:100E90000E943606662777276E197F0985E297E05C
:100EA0000E94DD0561E080E297E00E943606B6010F
:100EB00080E297E00E94DD0562E08BE197E00E940E
:100EC0003606662777276C1B7D0B8BE197E00E9427
:100ED000DD0569E086E197E00E943606B80186E10B
:100EE00097E0DF91CF911F910F91FF90EF90DF90EE
:100EF000CF900C94DD0542E050E065E672E00C9482
:100F0000B4018091C304811104C08AE396E00C947B
:100F10007B07823019F48DE995E0F9CF833019F41D
:100F200080E095E0F4CF08958FEF0E94CA0685E532
:100F30000E94CA060C948107EF92FF920F931F93B1
:100F4000CF93DF93EC017B018A018881998100971F
:100F500029F02A813B812417350788F4B8016F5F97
:100F60007F4F0E944919009791F0998388831B83D2
:100F70000A832C813D81232B11F4FC0110821D83F7
:100F80000C83B701888199810E94401A0CC0888126
:100F90009981009711F00E94C018198218821D8251
:100FA0001C821B821A82CE01DF91CF911F910F917B
:100FB000FF90EF9008951F93CF93DF9385ED80937B
:100FC000BC008091AE039091AF03A091B003B091AB
:100FD000B1030796A11DB11D23E0B695A79597957E
:100FE00087952A95D1F72091BC0024FD03C010926B
:100FF000F60352C04091AE035091AF036091B0032D
:101000007091B103452B462B472B69F30097A1053F
:10101000B10541F025E32A95F1F700000197A109F8
:10102000B109E1CF8091AD03C1E0C093AC03882347
:1010300099F1D091B8001091BA008091BC008A7BE0
:101040008093BC0060E084E10E949D0360E085E144
:101050000E949D031092F603C093F8031092F703C9
:1010600061E084E10E949D0361E085E10E949D03AF
:101070008091B9008E7F8093B9008091B9008D7FF7
:101080008093B90088E48093B80085E48093BC0025
:101090001093BA00D093B800DF91CF911F910895BB
:1010A000EF92FF920F931F93CF93DF93EC01888110
:1010B00099818C01000F111F080F191FEA80FB8016
:1010C000A801B7018C819D810E942A1A892B09F4FD
:1010D00032C0AE81BF818A853FB7F8942C91982F9A
:1010E00090959223822BF7010E0F1F1FE017F10737
:1010F00081F0219148E08C9300C027FF9C93220F40
:1011000000C000C000C008F49C9300C04A9599F745
:10111000EDCF3FBF88819981AC01440F551F480F27
:10112000591F6A817B818C819D810E94371A8BECCB
:1011300097E00197F1F7DF91CF911F910F91FF9009
:10114000EF900895EF920F93CF93C22F242F462F45
:10115000682F88EE96E00E94630688EE96E00E9473
:1011600050082E2D402F6C2F8DED96E00E946306C7
:101170008DED96E0CF910F91EF900C9450081F9257
:101180000F920FB60F9211240BB60F922F933F932D
:101190004F935F936F937F938F939F93AF93BF937F
:1011A000EF93FF9380E095E00E945502FF91EF914D
:1011B000BF91AF919F918F917F916F915F914F916F
:1011C0003F912F910F900BBE0F900FBE0F901F906D
:1011D00018951F920F920FB60F9211240BB60F9213
:1011E0002F933F934F935F936F937F938F939F932F
:1011F000AF93BF93EF93FF9380E095E00E94E101EE
:10120000FF91EF91BF91AF919F918F917F916F91DE
:101210005F914F913F912F910F900BBE0F900FBE9A
:101220000F901F9018951F920F920FB60F921124D6
:101230000BB60F922F933F934F935F936F937F93D0
:101240008F939F93AF93BF93EF93FF938DE995E0B7
:101250000E945502FF91EF91BF91AF919F918F91A5
:101260007F916F915F914F913F912F910F900BBEA6
:101270000F900FBE0F901F9018951F920F920FB6F0
:101280000F9211240BB60F922F933F934F935F93BE
:101290006F937F938F939F93AF93BF93EF93FF933E
:1012A0008DE995E00E94E101FF91EF91BF91AF912F
:1012B0009F918F917F916F915F914F913F912F916E
:1012C0000F900BBE0F900FBE0F901F9018951F929E
:1012D0000F920FB60F9211240BB60F922F933F93DC
:1012E0004F935F936F937F938F939F93AF93BF932E
:1012F000EF93FF938AE396E00E945502FF91EF91EE
:10130000BF91AF919F918F917F916F915F914F911D
:101310003F912F910F900BBE0F900FBE0F901F901B
:1013200018951F920F920FB60F9211240BB60F92C1
:101330002F933F934F935F936F937F938F939F93DD
:10134000AF93BF93EF93FF938AE396E00E94E1018E
:10135000FF91EF91BF91AF919F918F917F916F918D
:101360005F914F913F912F910F900BBE0F900FBE49
:101370000F901F9018951F920F920FB60F92112485
:101380002F933F938F939F93AF93BF9380911F04AD
:1013900090912004A0912104B091220430911E0468
:1013A00023E0230F2D3758F50196A11DB11D209381
:1013B0001E0480931F0490932004A0932104B093F3
:1013C00022048091230490912404A0912504B091DB
:1013D00026040196A11DB11D80932304909324043B
:1013E000A0932504B0932604BF91AF919F918F9154
:1013F0003F912F910F900FBE0F901F90189526E8E8
:10140000230F0296A11DB11DD2CF1F920F920FB6CE
:101410000F9211240F900FBE0F901F9018951F92DE
:101420000F920FB60F9211240BB60F922F933F938A
:101430004F935F936F937F938F939F93AF93BF93DC
:10144000EF93FF938091B900887F803609F44DC0F7
:1014500008F040C0883209F4A7C028F5803109F4AB
:101460009BC0C8F4882309F4F7C0883009F494C0FD
:10147000FF91EF91BF91AF919F918F917F916F916C
:101480005F914F913F912F910F900BBE0F900FBE28
:101490000F901F901895883109F486C0803241F76B
:1014A0008093F50314C0803409F49BC040F480336A
:1014B000B9F38833E9F68093F50385ECAEC0803547
:1014C00009F483C0883509F494C0883489F60E94F1
:1014D000DB07CECF883909F48AC038F5883729F080
:1014E00050F4883611F0803719F683E08093F603C4
:1014F0001092F40355C0883809F479C0803919F086
:10150000803809F0B5CF8091F403803208F06FC0C5
:10151000E091F40381E08E0F8093F4038091BB008F
:10152000F0E0EC52FC4F80833BC0803B39F0D0F4BC
:10153000803A09F477C0883A09F09ACF84E0809322
:10154000F6031092D3031092D203F0E0E0E0199575
:101550008091D20381110FC081E08093D203109259
:10156000B20309C0803C09F4A8CF883C09F4A5CF98
:10157000883B09F07DCFE091D30381E08E0F80930B
:10158000D303F0E0EE54FC4F80818093BB00909138
:10159000D3038091D20329C080911B048093BB00A8
:1015A00085EC8093BC0064CF90911A04809119045B
:1015B000981758F5E0911A0481E08E0F80931A0471
:1015C000F0E0E750FC4F8081E9CFE0911A0481E020
:1015D0008E0F80931A048091BB00F0E0E750FC4F1F
:1015E000808390911A04809119049817C8F285E8B5
:1015F000D8CFE0911A0481E08E0F80931A04809175
:10160000BB00F0E0E750FC4F80838091F80381112C
:101610005ECF81E08093F70384EA8093BC00109250
:10162000F60326CF85EC8093BC001092F6038091E0
:10163000F403803230F4E091F403F0E0EC52FC4F1C
:1016400010826091F40370E084ED93E0F0E0E0E05C
:1016500019951092F4030CCF1092F50338CF1F9216
:101660000F920FB60F9211240BB60F922F933F9348
:101670004F935F936F937F938F939F93AF93BF939A
:10168000EF93FF9348E251E064E271E090E080E084
:101690000E948705FF91EF91BF91AF919F918F912C
:1016A0007F916F915F914F913F912F910F900BBE62
:1016B0000F900FBE0F901F9018951F920F920FB6AC
:1016C0000F9211240BB60F922F933F934F935F937A
:1016D0006F937F938F939F93AF93BF93EF93FF93FA
:1016E00048EA50E064EA70E083E090E00E948705F9
:1016F000FF91EF91BF91AF919F918F917F916F91EA
:101700005F914F913F912F910F900BBE0F900FBEA5
:101710000F901F9018951F920F920FB60F921124E1
:101720000BB60F922F933F934F935F936F937F93DB
:101730008F939F93AF93BF93EF93FF9348E950E04C
:1017400064E970E082E090E00E948705FF91EF91EC
:10175000BF91AF919F918F917F916F915F914F91C9
:101760003F912F910F900BBE0F900FBE0F901F90C7
:1017700018951F920F920FB60F9211240BB60F926D
:101780002F933F934F935F936F937F938F939F9389
:10179000AF93BF93EF93FF9348E850E064E870E0A5
:1017A00081E090E00E948705FF91EF91BF91AF919A
:1017B0009F918F917F916F915F914F913F912F9169
:1017C0000F900BBE0F900FBE0F901F9018951F9299
:1017D0000F920FB60F9211240BB60F920F931F9317
:1017E0002F933F934F935F936F937F938F939F9329
:1017F000AF93BF93CF93EF93FF9382E00E94740364
:10180000C82F8091B0029091B10201969093B102DD
:101810008093B00280911603843618F085E080939F
:10182000AB028091AB02833009F444C0C0F4823033
:10183000B9F1FF91EF91CF91BF91AF919F918F91AE
:101840007F916F915F914F913F912F911F910F91D8
:101850000F900BBE0F900FBE0F901F901895843005
:1018600009F441C0853029F70E942A050091AC0295
:101870001091AD022091AE023091AF02601B710B4E
:10188000820B930B693C71058105910508F44EC0EC
:10189000109216031092B1021092B00282E020C0A2
:1018A000C111C7CF109216031092B1021092B0026C
:1018B00083E016C0C13009F0BCCF8091B002909196
:1018C000B102E091160391E09E0F90931603F0E0B1
:1018D000E655FD4F80871092B1021092B00284E06D
:1018E0008093AB02A6CF8091B0029091B102C1115A
:1018F0000BC0E091160391E09E0F90931603F0E069
:10190000E655FD4F8087D0CF8536910508F491CFFD
:1019100085E08093AB020E942A056093AC0270932D
:10192000AD028093AE029093AF0283CFC11181CFFD
:101930001092B1021092B0027CCFCF92DF92EF9260
:10194000FF920F931F93E82FF92F05C00150110943
:101950002109310961F1908196239417B9F305C0EB
:10196000015011092109310911F190819623941335
:10197000F7CFC12CD12CE12CF12C0AC08FEFC81A63
:10198000D80AE80AF80A0C151D052E053F0579F05E
:1019900080818623841791F36C2D7D2D8E2D9F2DB4
:1019A0001F910F91FF90EF90DF90CF90089560E02E
:1019B00070E080E090E01F910F91FF90EF90DF903A
:1019C000CF900895CF93DF93EC0170E0FB01EE0F11
:1019D000FF1FDF01A60FB71FA75FBD4F12968C91A7
:1019E00095EF980F9230D0F481E0809380008BE0E7
:1019F00080938100E60FF71FE75FFD4F80818883AA
:101A00008181898382818A83888161E00E94CB03FE
:101A1000898161E0DF91CF910C94CB0397EF980F10
:101A2000923038F483E08093B00084E08093B1007A
:101A3000E1CF853021F09EEF980F923038F481E0AD
:101A4000809390008BE080939100D4CF9AEF980F11
:101A5000933038F481E08093A0008BE08093A10064
:101A6000C9CF8C52833030F681E0809320018BE027
:101A700080932101BFCFFC01862F10821182128238
:101A8000648360E00C94CB03CF93DF93EC01862F4B
:101A9000262F30E0F901E659FD4FE491EA87F9017C
:101AA000EC5DFD4FE491F0E0EE0FFF1FE65FFD4FB0
:101AB000259134913F832E8361E00E94CB0384E023
:101AC00090E0998388838CE090E00E9424189B83A7
:101AD0008A83892B21F488E692E00E94471A30E03D
:101AE00020E048815981CA01880F991F840F951FF2
:101AF0002817390740F4EA81FB81E20FF31F1082B7
:101B00002F5F3F4FEECF0E9424189D838C83892B3B
:101B100021F488E692E00E94471A90E080E0488134
:101B200059819A01220F331F240F351F8217930703
:101B300038F4EC81FD81E80FF91F10820196EFCF98
:101B4000DF91CF910895E0E0F5E01382128248EE34
:101B500053E060E070E0448355836683778387E5D4
:101B600092E09183808325E331E03587248724E365
:101B700031E03787268720E331E0318B208B21E36A
:101B800031E0338B228B22E331E0358B248B26E34B
:101B900031E0378B268B118E128E138E148EEDE969
:101BA000F5E01382128244835583668377839183A1
:101BB000808325ED30E03587248724ED30E03787BA
:101BC000268720ED30E0318B208B21ED30E0338B08
:101BD000228B22ED30E0358B248B26ED30E0378BE5
:101BE000268B118E128E138E148EEAE3F6E013828A
:101BF000128244835583668377839183808385EC47
:101C000090E09587848784EC90E09787868780ECC6
:101C100090E0918B808B81EC90E0938B828B82ECB7
:101C200090E0958B848B86EC90E0978B868B118E61
:101C3000128E138E148E81E090E090933007809383
:101C40002F07109231081092320810923308109228
:101C50003408109235081092360810923708109206
:101C600038081092390810923A0810923B081092E6
:101C70003C0810923D0810923E08109240081092C5
:101C80003F081092410810924208109243081092A7
:101C90004408109245081092460810924708109286
:101CA000480810924908809380008BE0809381005F
:101CB00083E08093B00084E08093B1006AE085E225
:101CC00097E00E94E20C61E080E297E00E94E20C63
:101CD00062E08BE197E00E94E20C69E086E197E028
:101CE0000E94E20C6FE381E197E00E943B0D60E40B
:101CF0008CE097E00E943B0D61E487E097E00E9452
:101D00003B0D62E482E097E00E943B0D6CE38DEFB7
:101D100096E00E943B0D6DE388EF96E00E943B0D3C
:101D20006EE383EF96E00E943B0D63E488EE96E05D
:101D30000E94440D64E48DED96E00E94440DE7EDB1
:101D4000F6E011821082138212821582148249E019
:101D500050E064E872E0CF010C949C07CF93DF93CE
:101D600000D000D0CDB7DEB7789484B5826084BD52
:101D700084B5816084BD85B5826085BD85B581608F
:101D800085BD80916E00816080936E00109281000D
:101D900080918100826080938100809181008160C8
:101DA0008093810080918000816080938000809189
:101DB000B10084608093B1008091B0008160809315
:101DC000B000809191008260809391008091910099
:101DD0008160809391008091900081608093900059
:101DE0008091A10082608093A1008091A100816018
:101DF0008093A1008091A00081608093A0008091D9
:101E00002101826080932101809121018160809372
:101E100021018091200181608093200180917A00CE
:101E2000846080937A0080917A00826080937A0047
:101E300080917A00816080937A0080917A00806836
:101E400080937A001092C1008AE396E00E948D018F
:101E50008DE995E00E948D0180E095E00E948D0162
:101E600065E070E080E090E00E94F80461E08DE0C1
:101E70000E94CB0391E0909380008BE080938100DF
:101E800023E02093B00024E02093B10090939000D1
:101E9000809391009093A0008093A10049E050E0CE
:101EA0006EE872E08AE396E00E94B4014091DB069E
:101EB0005091DC066091D7067091D8068AE396E0CF
:101EC0000E94B4018AE396E00E947B070E942A05E3
:101ED0006093F4047093F5048093F6049093F704F0
:101EE0001092C30454EC252E33243A940E942A0500
:101EF0000E94AF1620E030E04AE754E40E94AA179F
:101F00002091FC043091FD044091FE045091FF04A7
:101F10000E943D176093F8047093F9048093FA04CB
:101F20009093FB040E942A050091F4041091F5049B
:101F30002091F6043091F704601B710B820B930B18
:101F4000693E73408105910598F00E942A056093CF
:101F5000F4047093F5048093F6049093F704609171
:101F6000F30481E068276093F3048DE00E949D03F1
:101F70000E9495068091F204882309F4B1C2209151
:101F8000F1048091F0042535D9F5811139C0809193
:101F9000EF048F3F29F491E09093EE049093F004C6
:101FA0008091EE048F5F843308F051C08093EE047B
:101FB0008091F0048823E1F28091ED048111D8CF63
:101FC0008091EE048430A0F21092F00483E090E05F
:101FD0000E940207E82E84E090E00E940207082F8A
:101FE00085E090E00E940207182FE092C8040230BA
:101FF00009F443C188F50130B9F11092EE04B8CF6D
:102000002093EF04882361F28091EE04823061F422
:102010002093ED0490E03091C30431110DC081573D
:102020009B4FFC012083BCCF8330A0F39091ED0443
:1020300091509093ED04EECF323019F4855A9B4FB6
:10204000F0CF333009F0ACCF895D9B4FEACF1092CF
:10205000EE041092F004ACCF043009F418C205303D
:1020600061F60E949407C9CF86E090E00E940207C3
:10207000F82E8FEF0E94CA0685E50E94CA068E2DB3
:102080000E94CA06123309F4EDC008F058C01E3190
:1020900009F46AC038F4112309F472C060E070E0FA
:1020A000CB01E8C01F3109F4ACC01532B9F787E0A5
:1020B00090E00E9415078C0160E08F2D0E94CB03F9
:1020C0008F2D90E0FC01E659FD4F6491FC01EC5D21
:1020D000FD4FE491F0E0EE0FFF1FE051FE4F8591C0
:1020E0009491012E000C220B330B3F70462F0E945F
:1020F0009D0C6B017C01C114D104E104F10439F0A1
:102100002FEFC21AD20AE20AF20A8FE0F82286E022
:102110000E94CA06C092C404D092C504E092C604CC
:10212000F092C7048C2D0E94CA068D2D0E94CA060B
:102130008E2D0E94CA068F2D0E94CA065FC01434DD
:1021400099F068F41C3309F0A9CF92E7F91256C050
:102150001091EC0481E00E94CA06812FEDCF153466
:1021600019F0163409F09ACF60E08F2D0E94CB034E
:102170008F2D0E947403BC01990F880B990B6FC0BF
:102180001A8219821C821B821E821D826091D706D0
:102190007091D8066115710541F04091DB065091B0
:1021A000DC06CE0101960E949C07FD800F2D1E814A
:1021B00084E00E94CA068F2D0E94CA06F12CE12CF1
:1021C000E016F106ACF48D819E81E816F90670F4F4
:1021D00089819A81009751F08E0D9F1DFC018081AD
:1021E0000E94CA06FFEFEF1AFF0AEACF80E0F8CF9D
:1021F00089819A81009711F00E94C0180E9481077E
:10220000FCCEEF2DF0E0EE0FFF1FED5CFD4F1081D7
:1022100060E0812F0E94CB03163308F01653909193
:102220007B00812F8870977F892B80937B00812F83
:102230008770806480937C0080917A0080648093B2
:102240007A0080917A0086FDFCCF809178006091C1
:102250007900762F682F072E000C880B990B0E94AF
:10226000B11608C06091F8047091F9048091FA04E5
:102270009091FB040E94DE06C1CF86E090E00E94B0
:102280000207F82E103209F487C068F51A3009F4F5
:1022900045C01E3109F474C0183009F0E2CE88E060
:1022A00090E00E940207E82E89E090E00E94020779
:1022B000182F8AE090E00E940207082F8BE090E040
:1022C0000E940207282FF3E4FF12AEC0E11087C07E
:1022D000402F612F88EE96E00E94630688EE96E01C
:1022E0000E945008BECE1C3349F1143609F461C077
:1022F000123309F0B6CE0E942A050E94AF1620E0E4
:1023000030E04AE754E40E94AA176093FC047093FB
:10231000FD048093FE049093FF04A3CE87E090E039
:102320000E9415078C016F2D8AE297E00E94360605
:10233000B8018AE297E00E94DD0593CE87E090E045
:102340000E940207182FE2E1FE128BCE50E040E01F
:1023500070E060E090E080E00E942D078FEF810F39
:10236000823018F41093EC047CCE1092EC04E12C33
:1023700000E520E040E060E580E00E94A20871CE28
:1023800061E00E94CB0387E090E00E940207682F83
:102390008F2D0E949D0365CE61E00E94CB0387E0F4
:1023A00090E00E940207682F70E08F2D0E94FC03CE
:1023B00058CE811156CE87E090E00E9415077C012F
:1023C00089E090E00E9415076C018BE090E00E948C
:1023D0001507AC01B601C7010E942D0742CE9FEF41
:1023E0009E0D4091E8065091E9069417150608F0F5
:1023F00075CFE92EEE0CE90EF12CE091EA06F09192
:10240000EB06EE0DFF1D0083E091EA06F091EB066E
:10241000EE0DFF1D11838091EA069091EB06E80E08
:10242000F91EF70122835ACFF4E4FF121ACEE1100D
:1024300009C0402F612F8DED96E00E9463068DED5F
:1024400096E04ECF9FEF9E0D4091DD065091DE0647
:1024500094171506A0F7492F440F940F492F50E009
:10246000E091DF06F091E006E40FF51F0083E091B4
:10247000DF06F091E006E40FF51F11838091DF067F
:102480009091E006480F591FFA012283D8CF61E0EE
:102490008AE297E00E94360670E060E08AE297E008
:1024A0000E94DD0569E08AE297E00E94360670E04E
:1024B00060E08AE297E00E94DD0562E08AE297E050
:1024C0000E94360670E060E08AE297E00E94DD0537
:1024D0006AE08AE297E00E94360670E060E029CF69
:1024E00087E097E00E945906182F82E097E00E944B
:1024F0005906880F182B8091CF04811761F00E9434
:102500002A056093CB047093CC048093CD04909300
:10251000CE041092CA040091EC04113009F4FFC0FB
:10252000123009F442C10E942A056093CB047093D3
:10253000CC048093CD049093CE040091EC04809160
:10254000C904801741F050E040E070E060E090E0A6
:1025500080E00E942D071093CF040093C90401115D
:102560009EC28091E10481110AC0F1E0F093E10480
:10257000E12C00E520E040E060E50E94A2088DEF3C
:1025800096E00E94590681110AC00E942A056093B4
:10259000D8047093D9048093DA049093DB0488EF15
:1025A00096E00E94590681110AC00E942A05609394
:1025B000D4047093D5048093D6049093D70483EF0A
:1025C00096E00E94590681110AC00E942A05609374
:1025D000D0047093D1048093D2049093D30480905C
:1025E000D8049090D904A090DA04B090DB04C09095
:1025F000D404D090D504E090D604F090D704811490
:102600009104A104B10409F4BAC14090D0045090DF
:10261000D1046090D2047090D30441145104610439
:10262000710409F425C14C185D086E087F08C818AC
:10263000D908EA08FB081092D8041092D904109225
:10264000DA041092DB041092D4041092D504109294
:10265000D6041092D7041092D0041092D104109294
:10266000D2041092D3048DEF96E00E94590688237D
:1026700009F4BDC0D301C2014597A109B109833D49
:102680009340A105B10508F4CAC0F7EE4F0EF3E080
:102690005F1E611C711C23ED421623E0520661048B
:1026A000710470F487EEC80E83E0D81EE11CF11CA3
:1026B00093EDC91693E0D906E104F10408F4FFC0D4
:1026C0008091E0049FEF980F923008F0D0C10E94F3
:1026D0002A050091DC041091DD042091DE04309184
:1026E000DF04601B710B820B930B693E7340810505
:1026F000910590F0E12C00E520E040E060E580E00D
:102700000E94A20850E040E070E060E090E080E0CD
:102710000E942D071092E0040E94E402E7CB0E9481
:102720002A05C090CB04D090CC04E090CD04F0906A
:10273000CE046C197D098E099F09693E734081059D
:10274000910508F4FACE8091CA048111F6CE0330C7
:1027500020F491E0900F9093EC048091EC0483308E
:1027600011F41092EC048091EC04811107C0E12C6B
:1027700000E520E040E060E580E008C0813061F4E1
:10278000E12C00E520E540E060E580E50E94A2083C
:1027900021E02093CA04D1CE8230D1F720E5E22E89
:1027A00000E020E040E560E0E7CF0E942A05C0900D
:1027B000CB04D090CC04E090CD04F090CE046C1902
:1027C0007D098E099F09693E73408105910508F4D2
:1027D000B4CE8091CA048111B0CE002329F09FEFBE
:1027E000900F9093EC04BFCF1093EC04BCCF83EF19
:1027F00096E00E94590681113DCFE12C0FEF20E0B9
:1028000040E06FEF80E00E94A20883E08093E00444
:1028100050E040E06CE97FEF90E080E01CC0D70121
:10282000C6014597A109B109833D9340A105B105B2
:1028300008F02BCFE12C0FEF20E040E06FEF80E0BD
:102840000E94A20882E08093E00450E040E070E043
:1028500060E08CE99FEF0E942D070E942A0560939B
:10286000DC047093DD048093DE049093DF0428CFB2
:10287000C114D104E104F10409F422CFD701C60147
:1028800088199909AA09BB09AC01BD014551510933
:1028900061097109433D53406105710570F510925E
:1028A000D8041092D9041092DA041092DB0410922A
:1028B000D4041092D5041092D6041092D704E12CBF
:1028C0000FEF20E040E06FEF80E00E94A20821E0DF
:1028D0002093E0040E942A056093DC047093DD04D9
:1028E0008093DE049093DF0450E040E070E060E00D
:1028F00084E690E00E942D07E3CE89519C4FAF4FB4
:10290000BF4F833D9340A105B10588F41092D804D0
:102910001092D9041092DA041092DB041092D404BD
:102920001092D5041092D6041092D70483CF0E943F
:102930002A05681979098A099B09693B7B40810549
:10294000910588F01092D8041092D9041092DA04FC
:102950001092DB041092D4041092D5041092D60485
:102960001092D704ADCE0E942A056C197D098E09FC
:102970009F09693B7B408105910520F7A1CEC114D9
:10298000D104E104F10409F49BCE4090D0045090AE
:10299000D1046090D2047090D304411451046104B6
:1029A000710409F48DCED701C60184199509A609D1
:1029B000B709AC01BD014551510961097109433D98
:1029C00053406105710588F41092D4041092D50427
:1029D0001092D6041092D7041092D0041092D10411
:1029E0001092D2041092D30425CF89519C4FAF4F3F
:1029F000BF4F833D9340A105B10588F41092D404E4
:102A00001092D5041092D6041092D7041092D004DC
:102A10001092D1041092D2041092D30450CF0E948D
:102A20002A056C197D098E099F09693B7B40810548
:102A3000910588F01092D4041092D5041092D60417
:102A40001092D7041092D0041092D1041092D204A4
:102A50001092D30435CE0E942A056419750986099F
:102A60009709693B7B408105910520F729CE83308A
:102A700009F052CE0E942A050091DC041091DD0479
:102A80002091DE043091DF04601B710B820B930BED
:102A9000693C71058105910508F43ECE2BCE0130CD
:102AA00009F0D2C08DEF96E00E945906082F88EFFA
:102AB00096E00E945906182F83EF96E00E9459066F
:102AC000110FF4E08F9FC0011124182B102B80915F
:102AD000EA04813009F058C00E942A05C090E6043B
:102AE000D090E704E090E804F090E9046C197D09C7
:102AF0008E099F09693E73408105910560F00E942F
:102B00002A056093E6047093E7048093E8049093A9
:102B1000E9041092EA04F090EA04143009F478C051
:102B20000CF03FC0113009F459C0133009F456C0FD
:102B3000E12C0FEF2FEF40E06FEF8FEF0E94A20824
:102B4000F11013C01092E5041092E4048CE99FEF99
:102B50009093010280930002ECE3F0E0F093E30431
:102B6000E093E204F1E0F093EA044091E204509132
:102B7000E30460910002709101028091E40490915D
:102B8000E5040E942D07C8CD8111C5CF0E942A05FA
:102B90006093E6047093E7048093E8049093E9045B
:102BA000BACF1630A9F1173019F6E12C00E520E56F
:102BB00040E060E580E50E94A208F110D6CF1092B7
:102BC000E5041092E404E4E6F0E0F0930102E093FF
:102BD00000021092E3041092E204C7CFE12C0FEF41
:102BE0002FEF40E06FEF8FEF0E94A208F110BDCFF2
:102BF0001092E5041092E404109201021092000277
:102C00003092E3042092E20421E02093EA04ADCF65
:102C1000E12C0FEF2FEF40E06FEF8FEF0E94A20843
:102C2000F110A3CF1092E5041092E4041092010277
:102C3000109200028CE390E09093E3048093E2040E
:102C400091E09093EA0491CF023009F065CD81E1E3
:102C500097E00E945906182F8CE097E00E945906D1
:102C6000880F812B823089F18330F1F1EE24EA94D0
:102C700000E020E08130E1F04FEF60E080E00E9472
:102C8000A208109202021092EB044091EB0424E19E
:102C90004202A001112460E570E090E080E00E9413
:102CA0002D0762E070E080E090E00E94F80434CDEF
:102CB00040E560E080E00E94A2088091020284303A
:102CC00014F78F5F80930202DECF90E5E92E00E0DB
:102CD00020E04FEF60E080E00E94A20880910202B5
:102CE0008D3F8CF28150EECF80E5E82E00E020E0B1
:102CF00040E560E080E00E94A2088091020287FF28
:102D000008C0FCEFF0930202809102028093EB0472
:102D1000BCCF8823C9F384E080930202F5CF809171
:102D2000D7069091D806009711F00E94C0188091A4
:102D3000DF069091E0060E94C0188091E106909114
:102D4000E2060E94C0188091EA069091EB060E946C
:102D5000C0188091EC069091ED060C94C018E89490
:102D600009C097FB3EF490958095709561957F4FD3
:102D70008F4F9F4F9923A9F0F92F96E9BB27939581
:102D8000F695879577956795B795F111F8CFFAF491
:102D9000BB0F11F460FF1BC06F5F7F4F8F4F9F4FC2
:102DA00016C0882311F096E911C0772321F09EE820
:102DB000872F762F05C0662371F096E8862F70E086
:102DC00060E02AF09A95660F771F881FDAF7880F60
:102DD0009695879597F9089597F99F6780E870E031
:102DE00060E008959FEF80EC089500240A94161681
:102DF000170618060906089500240A9412161306E9
:102E0000140605060895092E0394000C11F4882376
:102E100052F0BB0F40F4BF2B11F460FF04C06F5F92
:102E20007F4F8F4F9F4F089557FD9058440F551F68
:102E300059F05F3F71F04795880F97FB991F61F03C
:102E40009F3F79F087950895121613061406551FB3
:102E5000F2CF4695F1DF08C0161617061806991F1F
:102E6000F1CF86957105610508940895E894BB2714
:102E700066277727CB0197F908955058BB27AA27D3
:102E80000E9455170C9403170E94F51638F00E9403
:102E9000FC1620F039F49F3F19F426F40C94F21636
:102EA0000EF4E095E7FB0C94EC16E92F0E94141742
:102EB00058F3BA17620773078407950720F079F46F
:102EC000A6F50C9436170EF4E0950B2EBA2FA02D14
:102ED0000B01B90190010C01CA01A0011124FF27C7
:102EE000591B99F0593F50F4503E68F11A16F040C2
:102EF000A22F232F342F4427585FF3CF46953795C1
:102F00002795A795F0405395C9F77EF41F16BA0B85
:102F1000620B730B840BBAF09150A1F0FF0FBB1F33
:102F2000661F771F881FC2F70EC0BA0F621F731F7C
:102F3000841F48F4879577956795B795F7959E3FD9
:102F400008F0B0CF9395880F08F09927EE0F97956A
:102F5000879508950E94BE170C9403170E94FC16D3
:102F600058F00E94F51640F029F45F3F29F00C94C8
:102F7000EC1651110C9437170C94F2160E9414178A
:102F800068F39923B1F3552391F3951B550BBB2798
:102F9000AA2762177307840738F09F5F5F4F220FDD
:102FA000331F441FAA1FA9F335D00E2E3AF0E0E8D4
:102FB00032D091505040E695001CCAF72BD0FE2F1E
:102FC00029D0660F771F881FBB1F261737074807B2
:102FD000AB07B0E809F0BB0B802DBF01FF2793586A
:102FE0005F4F3AF09E3F510578F00C94EC160C942C
:102FF00037175F3FE4F3983ED4F38695779567954E
:10300000B795F7959F5FC9F7880F911D969587959E
:1030100097F90895E1E0660F771F881FBB1F6217BD
:1030200073078407BA0720F0621B730B840BBA0B7B
:10303000EE1F88F7E0950895EE0FFF1F881F8BBFE6
:103040000790F691E02D19940F931F93CF93DF9380
:103050008230910510F482E090E0E0914C08F0910C
:103060004D0830E020E0B0E0A0E0309799F4211561
:10307000310509F44AC0281B390B24303105D8F535
:103080008A819B816115710589F1FB01938382839C
:10309000FE0111C0408151810281138148175907F7
:1030A000E0F04817590799F4109761F012960C93C5
:1030B000129713961C933296CF01DF91CF911F91F7
:1030C0000F91089500934C0810934D08F4CF2115EB
:1030D000310551F04217530738F0A901DB019A017D
:1030E000BD01DF01F801C1CFEF01F9CF90934D0889
:1030F00080934C08CDCFFE01E20FF31F8193919393
:103100002250310939832883D7CF20914A08309142
:103110004B08232B41F42091050230910602309395
:103120004B0820934A082091030230910402211594
:10313000310541F42DB73EB7409107025091080286
:10314000241B350BE0914A08F0914B08E217F30776
:10315000A0F42E1B3F0B2817390778F0AC014E5F07
:103160005F4F2417350748F04E0F5F1F50934B08F1
:1031700040934A08819391939FCFF0E0E0E09CCF89
:10318000CF93DF930097E9F0FC013297138212820C
:10319000A0914C08B0914D08ED0130E020E010976F
:1031A000A1F420813181820F931F20914A08309130
:1031B0004B082817390709F061C0F0934B08E093DA
:1031C0004A08DF91CF910895EA01CE17DF07E8F5AD
:1031D0004A815B819E0141155105B1F7E901FB83ED
:1031E000EA8349915991C40FD51FEC17FD0761F48B
:1031F000808191810296840F951FE90199838883CC
:10320000828193819B838A83F0E0E0E012968D9126
:103210009C9113970097B9F52D913C911197CD0191
:103220000296820F931F20914A0830914B0828176D
:10323000390739F6309751F510924D0810924C0825
:10324000B0934B08A0934A08BCCFD383C28340817C
:103250005181840F951FC817D90761F44E5F5F4FE6
:1032600088819981480F591F518340838A819B81AE
:10327000938382832115310509F0B0CFF0934D0877
:10328000E0934C089ECFFD01DC01C0CF1382128277
:10329000D7CF4F925F926F927F928F929F92AF9211
:1032A000BF92CF92DF92EF92FF920F931F93CF9333
:1032B000DF938C01009799F4CB01DF91CF911F919F
:1032C0000F91FF90EF90DF90CF90BF90AF909F90C5
:1032D0008F907F906F905F904F900C942418FC011A
:1032E000E60FF71F9C0122503109E217F30708F49B
:1032F000AEC0D901CD91DC911197C617D70720F147
:10330000C530D10578F0CE0104978617970750F0A5
:10331000C61BD70B2297C193D1936D937C93CF019A
:103320000E94C018C801DF91CF911F910F91FF90AB
:10333000EF90DF90CF90BF90AF909F908F907F9055
:103340006F905F904F9008955B01AC1ABD0A4C01DD
:103350008C0E9D1EA0914C08B0914D08512C412C13
:10336000F12CE12C109731F580914A0890914B088F
:103370008815990509F05CC04616570608F058C034
:103380008091030290910402009741F48DB79EB79B
:103390004091070250910802841B950BE817F9072A
:1033A00008F055C0F0934B08E0934A08F901718387
:1033B0006083B8CF8D919C91119712966C90129763
:1033C00013967C901397A815B90559F56C0142E046
:1033D000C40ED11CCA14DB0420F1AC014A195B09EC
:1033E000DA011296159780F06282738251834083CE
:1033F000D9016D937C93E114F10471F0D701139618
:10340000FC93EE9312978ECF22968C0F9D1FF9019D
:1034100091838083F301EFCFF0934D08E0934C0844
:1034200081CF4816590608F42C017D01D3019ACFAB
:10343000CB010E9424187C01009749F0AE01B8012D
:103440000E94371AC8010E94C01887016BCF10E094
:1034500000E068CFFB01DC0104C08D910190801970
:1034600021F441505040C8F7881B990B0895FB0187
:10347000DC0102C001900D9241505040D8F70895F0
:10348000FB01DC0101900D920020E1F708950F93FC
:103490001F93CF93DF93E0915008F091510823815F
:1034A000EC0110E000E021FD08C00FEF1FEF14C099
:1034B0001995892B11F00FEF1FEF8991609150083A
:1034C00070915108DB011896ED91FC918111F0CFBC
:1034D0008AE01995892B49F7C801DF91CF911F9197
:1034E0000F91089511E0C9E5D1E000E006C0802FFA
:1034F000FE010E941C182196011DCA35D10780E0EB
:083500000807A9F7F894FFCFBA
:1035080064000400005408800000000021200B28FB
:1035180029072F3006393804000000000000000099
:103528000000000023220C2425082A2B093B3A0519
:1035380000000036003700380039003A003B003CF4
:10354800003D003E003F004000410042004300446F
:10355800004500000000007702B401FA01C4022B04
:103568000209021D020D0A0054686572652069731C
:10357800206E6F7420656E6F756768207370616365
:1035880065210D0034372E30312E3030320056652B
:083598007273696F6E3A2000A6
:00000001FF
