:100000000C945A010C948B010C948B010C948B0171
:100010000C948B010C948B010C948B010C948B0130
:100020000C948B010C94AC090C94AC090C94AC09A5
:100030000C948B010C948E0B0C948B010C948B0103
:100040000C948B010C94600B0C948B010C948B0121
:100050000C948B010C948B010C948B010C94620911
:100060000C948B010C9438090C940E090C948B01A0
:100070000C948B010C948B010C948B010C948B01D0
:100080000C94320B0C948B010C948B010C948B010F
:100090000C948B010C948B010C948B010C94B6097D
:1000A0000C948B010C948B010C94040B0C948B011D
:1000B0000C948B010C948B010C948B010C94D60A3C
:1000C0000C948B010C948B010C948B010C94E40820
:1000D0000C94BA080C948B010C9490080C9466084C
:1000E0000C948B010C94C4040C9479040C9462035A
:1000F0000C944A030C9458030C944A0D0C94350349
:100100000C945E030C9450030C94B4010C944B04B7
:100110000C946C030C943D030C943C040C948D04DF
:100120000C94FA010C9467040C94B0040C946603CC
:100130000C9455040C9440030C9409020C946F0425
:100140000C9431030C942B020C942B030C94CE04CE
:100150000C941D020C9454030C9441040C9446031B
:100160000C9439030C9477020C945F040C94C40231
:100170000C9483040C94BA040C949C040C943404E2
:100180000C9438120C9470030C946B030C94A6041A
:1001900000002100240027002A002D003000330039
:1001A00001010000040107010A0100000A0B020915
:1001B0000C0D0E0807030401000000000000000001
:1001C000000000000000000000000000000000002F
:1001D00000000000000012111000000000000000EC
:1001E000000000000000000000000000000000000F
:1001F000000020002300260029002C002F003200E0
:100200000001000003010601090100002200250091
:1002100028002B002E0031003400020100000501EF
:1002200008010B0105050505070508080808020275
:1002300002020A0A08080404040401010101010180
:1002400001010303030303030303040707070C0C63
:100250000C0C0C0C0C0C020202020606060606062A
:1002600006060B0B0B0B0B0B0B0B010210202008CF
:100270000810204010204080020102010804020101
:100280000102040810204080804020100804020170
:1002900080040201804020100804020108040201C9
:1002A0000102040810204080010204081020408050
:1002B0004A0D381211241FBECFEFD1E2DEBFCDBFF1
:1002C00000E00CBF12E0A0E0B2E0EAE5FCE200E0F2
:1002D0000BBF02C007900D92A639B107D9F728E0ED
:1002E000A6E9B2E001C01D92AF32B207E1F711E01A
:1002F000C9E5D1E000E006C021970109802FFE0189
:100300000E94C513C835D10780E00807A9F70E94ED
:10031000550E0C941B160C940000FC01A089B189A9
:1003200082E08C93A485B5851C92A685B78580E173
:100330008C93108EA489B58986E08C93A289B389A9
:100340008C9180618C93A289B3898C9188608C9305
:10035000A289B3898C9180688C930288F389E02DFF
:1003600080818F7D80830895AF92BF92CF92DF927C
:10037000EF92FF920F931F93CF93DF936C017B015A
:100380008B01040F151FEB015E01AE18BF08C017EB
:10039000D10759F06991D601ED91FC910190F0815E
:1003A000E02DC6011995892B79F7C501DF91CF9111
:1003B0001F910F91FF90EF90DF90CF90BF90AF9083
:1003C0000895FC01A089B1898C91A689B78982FD25
:1003D0000FC09C91818D8F5F8F73228D821749F0A2
:1003E000A18DAE0FBF2FB11D5D969C93818F089597
:1003F0008C910895FC01538D448D252F30E0842F7E
:1004000090E0821B930B541710F0CF96089501973C
:100410000895FC01918D828D981761F0A28DAE0F29
:10042000BF2FB11D5D968C91928D9F5F9F73928FB0
:1004300090E008958FEF9FEF0895FC01918D828DDC
:10044000981731F0828DE80FF11D858D90E00895A9
:100450008FEF9FEF0895FC01918D228D892F90E001
:10046000805C9F4F821B91098F73992708958BEDB4
:1004700094E00E942B0221E0892B09F420E0822FD6
:10048000089588E795E00E942B0221E0892B09F46A
:1004900020E0822F089585E196E00E942B0221E062
:1004A000892B09F420E0822F0895FC01A48DA80F68
:1004B000B92FB11DA35ABF4F2C91848D90E00196A6
:1004C0008F739927848FA689B7892C93A089B189C6
:1004D0008C91837080648C93938D848D981306C067
:1004E0000288F389E02D80818F7D80830895EF92CB
:1004F000FF920F931F93CF93DF93EC0181E0888FDE
:100500009B8D8C8D98131AC0E889F989808185FFAD
:1005100015C09FB7F894EE89FF896083E889F9894F
:1005200080818370806480839FBF81E090E0DF9151
:10053000CF911F910F91FF90EF900895F62E0B8DA4
:1005400010E00F5F1F4F0F731127E02E8C8D8E115F
:100550000CC00FB607FCFACFE889F989808185FFC6
:10056000F5CFCE010E945502F1CFEB8DEC0FFD2FA0
:10057000F11DE35AFF4FF0829FB7F8940B8FEA8981
:10058000FB8980818062CFCFCF93DF93EC01888D90
:100590008823B9F0AA89BB89E889F9898C9185FDFE
:1005A00003C0808186FD0DC00FB607FCF7CF8C918C
:1005B00085FFF2CF808185FFEDCFCE010E945502ED
:1005C000E9CFDF91CF91089580E090E0892B29F069
:1005D0000E944B0281110E94000080E090E0892B74
:1005E00049F080E090E0892B29F00E940000811101
:1005F0000E94000080E090E0892B29F00E944102D7
:1006000081110E94000080E090E0892B29F00E9477
:10061000370281110C94000008958150823108F056
:100620005AC0E82FF0E08827E75EFC4F8F4F0C940C
:10063000C51339033D032B03310335036B0340031B
:1006400046034A035003540358035E0362036B03DB
:1006500066036C037003809180008F778093800025
:100660000895809180008F7DF9CF80918000877FF1
:10067000F5CF84B58F7784BD089584B58F7DFBCF8A
:100680008091B0008F778093B00008958091B00082
:100690008F7DF9CF809190008F778093900008959F
:1006A000809190008F7DF9CF80919000877FF5CF6A
:1006B0008091A0008F778093A00008958091A00082
:1006C0008F7DF9CF8091A000877FF5CF80912001A9
:1006D0008F77809320010895809120018F7DF9CF3D
:1006E00080912001877FF5CFCF93DF93282F30E0D3
:1006F000F901E655FE4F8491F901E659FD4FD49179
:10070000F901EC5DFD4FC491CC23A1F081110E9451
:100710000D03EC2FF0E0EE0FFF1FE051FE4FA5910F
:10072000B491EC91ED2381E090E009F480E0DF9159
:10073000CF91089580E090E0FACF1F93CF93DF939D
:10074000282F30E0F901E655FE4F8491F901E65972
:10075000FD4FD491F901EC5DFD4FC491CC23A9F07C
:10076000162F81110E940D03EC2FF0E0EE0FFF1FFA
:10077000E65FFD4FA591B4918FB7F894EC911111FC
:1007800008C0D095DE23DC938FBFDF91CF911F91FE
:100790000895DE2BF8CFCF93DF9390E0FC01E6596C
:1007A000FD4F24918C5D9D4FFC0184918823D1F0F5
:1007B00090E0880F991FFC01E057FE4FA591B4917E
:1007C000FC01E65FFD4FC591D49161110EC09FB74A
:1007D000F8948C91E22FE0958E238C932881E2236C
:1007E000E8839FBFDF91CF9108958FB7F894EC9184
:1007F000E22BEC938FBFF6CF1F93CF93DF93182F8D
:10080000EB0161E00E94CB03209739F460E0812F77
:10081000DF91CF911F910C949D03CF3FD10511F42F
:1008200061E0F5CFE12FF0E0E655FE4FE491E150B5
:10083000E23108F0B3C0F0E08827EE5DFB4F8F4F48
:100840000C94C51334043C0441044B045504CE04F9
:100850005F0467046F04790483048D049C04A60478
:10086000CE04B004BA04C40484B5806884BDC7BD96
:10087000DF91CF911F91089584B5806284BDC8BD7A
:10088000F7CF80918000806880938000D0938900AA
:10089000C0938800EDCF80918000806280938000BB
:1008A000D0938B00C0938A00E3CF80918000886052
:1008B00080938000D0938D00C0938C00D9CF80911D
:1008C000B00080688093B000C093B300D1CF809116
:1008D000B00080628093B000C093B400C9CF809113
:1008E0009000806880939000D0939900C093980006
:1008F000BFCF80919000806280939000D0939B0046
:10090000C0939A00B5CF809190008860809390004A
:10091000D0939D00C0939C00ABCF8091A0008068D5
:100920008093A0008091A0008F7B8093A000D09343
:10093000A900C093A8009CCF8091A0008062809302
:10094000A000D093AB00C093AA0092CF8091A000EA
:1009500088608093A000D093AD00C093AC0088CF96
:1009600080912001806880932001D0932901C09359
:1009700028017ECF80912001806280932001D09356
:100980002B01C0932A0174CF80912001886080934D
:100990002001D0932D01C0932C016ACFC038D1051E
:1009A0000CF03ECF33CF3FB7F89480912104909163
:1009B0002204A0912304B091240426B5A89B05C06D
:1009C0002F3F19F00196A11DB11D3FBFBA2FA92FCE
:1009D000982F8827BC01CD01620F711D811D911DCB
:1009E00042E0660F771F881F991F4A95D1F7089537
:1009F0002FB7F89460911D0470911E0480911F041C
:100A0000909120042FBF08952091D003260F332703
:100A1000331F21323105ECF42091F403FC0190E006
:100A200080E0243069F082E00895A091D003219104
:100A3000AC0140555C4FA40FB52FB11D2C9301960E
:100A4000861798F38091D003680F6093D00380E0FD
:100A5000089581E0089508958FEF9FEF08958FEF37
:100A60009FEF08958091A90390E091958195910958
:100A70000895CF93DF93CB01EA01642F0E94040510
:100A8000CE01DF91CF910895CF93DF931F92CDB721
:100A9000DEB7698361E0CE0101960E94040581E022
:100AA00090E00F90DF91CF910895CF93DF93DB011A
:100AB000EA01FC01EB55FC4F40815CE0589F90013E
:100AC000599F300D112447FF1CC011961C921E9295
:100AD00080818F5F80838081A901480F511D87FD30
:100AE0005A9557FF03C080818C30ACF08D919C915A
:100AF0001197049680349C4938F18D919C9104960D
:100B000025C08081A901480F511D87FD5A9557FFC7
:100B1000DFCF8081DDCF8D919C914081240F311DED
:100B200047FD3A95D901AA0FBB1FA20FB31FAB5EB9
:100B3000BC4F11962D913C91820F931F998388830E
:100B40008081DF91CF91089580E49CE99983888327
:100B50008FEF8083F6CF0F931F93CF93DF93362FC2
:100B6000272F6F3F710519F014F03FEF20E0032F9E
:100B7000122F01302FEF120714F401E01FEFFC01D8
:100B80002381348120173107D1F1EC0114830383D1
:100B900016161706A4F4818160E00E949D038FE081
:100BA00090E00197F1F7888161E00E949D038A81BE
:100BB000B801DF91CF911F910F910C94FC03672B2B
:100BC00091F0808160E00E949D038FE090E00197AA
:100BD000F1F7898161E00E949D038A81662777276A
:100BE000601B710BE6CF818160E00E949D038881CC
:100BF00060E00E949D038A8170E060E0DACFDF91BF
:100C0000CF911F910F910895CF93DF93EC0170E086
:100C1000FB01EE0FFF1FE60FF71FEA5FFD4F80811C
:100C200088838181898382818A83888161E00E94AF
:100C3000CB03898161E00E94CB0384EF91E09C8328
:100C40008B83DF91CF91089590E080E00895EF923B
:100C5000FF920F931F93CF93DF93EC0180E0B0E0FE
:100C6000A0E0E881F981AE17BF07D8F4AE171F06E0
:100C7000A8F4E82FF0E00A811B817F010E0D1F1DF3
:100C8000F80140830A811B810E0D1F1DF80161834D
:100C90000A811B81F701E00FF11F228311968D5FFE
:100CA000E0CF81E0DF91CF911F910F91FF90EF9006
:100CB00008951092CD0485E196E00E942B0218164B
:100CC000190664F481E08093CD041092C10485E19B
:100CD00096E00E9409028093CC04089588E795E08D
:100CE0000E942B02181619064CF481E08093CD0463
:100CF00082E08093C10488E795E0EBCF8BED94E030
:100D00000E942B021816190644F781E08093CD0447
:100D100083E08093C1048BED94E0DBCF682F80915A
:100D2000C104811104C085E196E00C947702823001
:100D300019F488E795E0F9CF833019F48BED94E04E
:100D4000F4CF08950F931F93CF93DF938B01D82F88
:100D5000C92F82E00E948E06C801AD2FBC2F809360
:100D6000C2049093C304A093C404B093C5040E942A
:100D70008E06812F0E948E068D2F0E948E068C2F4C
:100D8000DF91CF911F910F910C948E062091C10499
:100D9000211105C083579B4FFC01808108952230AB
:100DA00019F4875A9B4FF8CF8B5D9B4F2330A1F3EB
:100DB00008950F931F93CF93DF938C010E94C60673
:100DC000C6EAD2E08883C80101960E94C6068983DC
:100DD0008091A6029091A702DF91CF911F910F9170
:100DE0000895CF92DF92EF92FF920F931F93CF93CC
:100DF000DF938B01080F191F7801E40EF51E681BA5
:100E0000790B6B01C41AD50AEB01C40FD51F041B63
:100E1000150B6AE080E097E00E94040666277727BA
:100E20006E197F0980E097E00E94AB0561E08BEFCF
:100E300096E00E940406B6018BEF96E00E94AB0597
:100E400062E086EF96E00E940406662777276C1B17
:100E50007D0B86EF96E00E94AB0569E081EF96E09E
:100E60000E940406B80181EF96E0DF91CF911F91B7
:100E70000F91FF90EF90DF90CF900C94AB0542E084
:100E800050E062E672E00C94B4018091C1048111DB
:100E900004C085E196E00C943F07823019F488E79E
:100EA00095E0F9CF833019F48BED94E0F4CF0895F9
:100EB0008FEF0E948E0685E50E948E060C944507F2
:100EC000EF92FF920F931F93CF93DF93EC017B017F
:100ED0008A0188819981009729F02A813B81241712
:100EE000350788F4B8016F5F7F4F0E94F2140097B6
:100EF00091F0998388831B830A832C813D81232B66
:100F000011F4FC0110821D830C83B7018881998143
:100F10000E94E9150CC088819981009711F00E9408
:100F20006914198218821D821C821B821A82CE01CA
:100F3000DF91CF911F910F91FF90EF9008951F9334
:100F4000CF93DF9385ED8093BC008091AC039091AB
:100F5000AD03A091AE03B091AF030796A11DB11DE3
:100F600023E0B695A795979587952A95D1F7209177
:100F7000BC0024FD03C01092F40352C04091AC03A6
:100F80005091AD036091AE037091AF03452B462B9A
:100F9000472B69F30097A105B10541F025E32A9598
:100FA000F1F700000197A109B109E1CF8091AB03EE
:100FB000C1E0C093AA03882399F1D091B8001091A1
:100FC000BA008091BC008A7B8093BC0060E084E121
:100FD0000E949D0360E085E10E949D031092F4034E
:100FE000C093F6031092F50361E084E10E949D0333
:100FF00061E085E10E949D038091B9008E7F80931E
:10100000B9008091B9008D7F8093B90088E4809306
:10101000B80085E48093BC001093BA00D093B80068
:10102000DF91CF911F910895EF92FF920F931F933D
:10103000CF93DF93EC01888199818C01000F111F00
:10104000080F191FEA80FB80A801B7018C819D81E0
:101050000E94D315892B09F432C0AE81BF818A85E5
:101060003FB7F8942C91982F90959223822BF701FB
:101070000E0F1F1FE017F10781F0219148E08C93BC
:1010800000C027FF9C93220F00C000C000C008F4DE
:101090009C9300C04A9599F7EDCF3FBF8881998115
:1010A000AC01440F551F480F591F6A817B818C8109
:1010B0009D810E94E0158BEC97E00197F1F7DF919D
:1010C000CF911F910F91FF90EF9008951F920F9273
:1010D0000FB60F9211240BB60F922F933F934F939D
:1010E0005F936F937F938F939F93AF93BF93EF9390
:1010F000FF938BED94E00E945502FF91EF91BF9119
:10110000AF919F918F917F916F915F914F913F919F
:101110002F910F900BBE0F900FBE0F901F90189540
:101120001F920F920FB60F9211240BB60F922F93AE
:101130003F934F935F936F937F938F939F93AF935F
:10114000BF93EF93FF938BED94E00E94E101FF9139
:10115000EF91BF91AF919F918F917F916F915F912F
:101160004F913F912F910F900BBE0F900FBE0F909C
:101170001F9018951F920F920FB60F9211240BB665
:101180000F922F933F934F935F936F937F938F9320
:101190009F93AF93BF93EF93FF9388E795E00E94EF
:1011A0005502FF91EF91BF91AF919F918F917F91E8
:1011B0006F915F914F913F912F910F900BBE0F90C8
:1011C0000FBE0F901F9018951F920F920FB60F929F
:1011D00011240BB60F922F933F934F935F936F930E
:1011E0007F938F939F93AF93BF93EF93FF9388E782
:1011F00095E00E94E101FF91EF91BF91AF919F9126
:101200008F917F916F915F914F913F912F910F90AF
:101210000BBE0F900FBE0F901F9018951F920F924C
:101220000FB60F9211240BB60F922F933F934F934B
:101230005F936F937F938F939F93AF93BF93EF933E
:10124000FF9385E196E00E945502FF91EF91BF91D7
:10125000AF919F918F917F916F915F914F913F914E
:101260002F910F900BBE0F900FBE0F901F901895EF
:101270001F920F920FB60F9211240BB60F922F935D
:101280003F934F935F936F937F938F939F93AF930E
:10129000BF93EF93FF9385E196E00E94E101FF91F8
:1012A000EF91BF91AF919F918F917F916F915F91DE
:1012B0004F913F912F910F900BBE0F900FBE0F904B
:1012C0001F9018951F920F920FB60F9211242F9313
:1012D0003F938F939F93AF93BF9380911D04909101
:1012E0001E04A0911F04B091200430911C0423E03F
:1012F000230F2D3758F50196A11DB11D20931C0415
:1013000080931D0490931E04A0931F04B0932004A7
:101310008091210490912204A0912304B09124048F
:101320000196A11DB11D8093210490932204A093E6
:101330002304B0932404BF91AF919F918F913F916B
:101340002F910F900FBE0F901F90189526E8230F36
:101350000296A11DB11DD2CF1F920F920FB60F9210
:1013600011240F900FBE0F901F9018951F920F928F
:101370000FB60F9211240BB60F922F933F934F93FA
:101380005F936F937F938F939F93AF93BF93EF93ED
:10139000FF938091B900887F803609F44DC008F032
:1013A00040C0883209F4A7C028F5803109F49BC0F9
:1013B000C8F4882309F4F7C0883009F494C0FF9179
:1013C000EF91BF91AF919F918F917F916F915F91BD
:1013D0004F913F912F910F900BBE0F900FBE0F902A
:1013E0001F901895883109F486C0803241F78093A8
:1013F000F30314C0803409F49BC040F48033B9F384
:101400008833E9F68093F30385ECAEC0803509F4A8
:1014100083C0883509F494C0883489F60E949F07F8
:10142000CECF883909F48AC038F5883729F050F4CE
:10143000883611F0803719F683E08093F403109218
:10144000F20355C0883809F479C0803919F0803822
:1014500009F0B5CF8091F203803208F06FC0E091BF
:10146000F20381E08E0F8093F2038091BB00F0E0E5
:10147000EE52FC4F80833BC0803B39F0D0F4803A81
:1014800009F477C0883A09F09ACF84E08093F40396
:101490001092D1031092D003F0E0E0E01995809112
:1014A000D00381110FC081E08093D0031092B0036C
:1014B00009C0803C09F4A8CF883C09F4A5CF883B3B
:1014C00009F07DCFE091D10381E08E0F8093D103AD
:1014D000F0E0E055FC4F80818093BB009091D103F8
:1014E0008091D00329C0809119048093BB0085ECC2
:1014F0008093BC0064CF90911804809117049817D2
:1015000058F5E091180481E08E0F80931804F0E004
:10151000E950FC4F8081E9CFE091180481E08E0F03
:10152000809318048091BB00F0E0E950FC4F808369
:1015300090911804809117049817C8F285E8D8CFC5
:10154000E091180481E08E0F809318048091BB0015
:10155000F0E0E950FC4F80838091F60381115ECF6B
:1015600081E08093F50384EA8093BC001092F40339
:1015700026CF85EC8093BC001092F4038091F20397
:10158000803230F4E091F203F0E0EE52FC4F108232
:101590006091F20370E082ED93E0F0E0E0E01995F5
:1015A0001092F2030CCF1092F30338CF1F920F92D8
:1015B0000FB60F9211240BB60F922F933F934F93B8
:1015C0005F936F937F938F939F93AF93BF93EF93AB
:1015D000FF9348E251E064E271E090E080E00E9415
:1015E0005505FF91EF91BF91AF919F918F917F91A1
:1015F0006F915F914F913F912F910F900BBE0F9084
:101600000FBE0F901F9018951F920F920FB60F925A
:1016100011240BB60F922F933F934F935F936F93C9
:101620007F938F939F93AF93BF93EF93FF9348EA7A
:1016300050E064EA70E083E090E00E945505FF917D
:10164000EF91BF91AF919F918F917F916F915F913A
:101650004F913F912F910F900BBE0F900FBE0F90A7
:101660001F9018951F920F920FB60F9211240BB670
:101670000F922F933F934F935F936F937F938F932B
:101680009F93AF93BF93EF93FF9348E950E064E9D2
:1016900070E082E090E00E945505FF91EF91BF91CC
:1016A000AF919F918F917F916F915F914F913F91FA
:1016B0002F910F900BBE0F900FBE0F901F9018959B
:1016C0001F920F920FB60F9211240BB60F922F9309
:1016D0003F934F935F936F937F938F939F93AF93BA
:1016E000BF93EF93FF9348E850E064E870E081E037
:1016F00090E00E945505FF91EF91BF91AF919F91AE
:101700008F917F916F915F914F913F912F910F90AA
:101710000BBE0F900FBE0F901F9018951F920F9247
:101720000FB60F9211240BB60F920F931F932F93A6
:101730003F934F935F936F937F938F939F93AF9359
:10174000BF93CF93EF93FF9382E00E947403C82F5F
:101750008091AE029091AF0201969093AF02809378
:10176000AE0280911403843618F085E08093A902BC
:101770008091A902833009F444C0C0F48230B9F1E9
:10178000FF91EF91CF91BF91AF919F918F917F91F9
:101790006F915F914F913F912F911F910F910F90FA
:1017A0000BBE0F900FBE0F901F901895843009F458
:1017B00041C0853029F70E94F8040091AA021091D7
:1017C000AB022091AC023091AD02601B710B820B19
:1017D000930B693C71058105910508F44EC0109288
:1017E00014031092AF021092AE0282E020C0C11129
:1017F000C7CF109214031092AF021092AE0283E092
:1018000016C0C13009F0BCCF8091AE029091AF02FA
:10181000E091140391E09E0F90931403F0E0E855DB
:10182000FD4F80871092AF021092AE0284E0809349
:10183000A902A6CF8091AE029091AF02C1110BC058
:10184000E091140391E09E0F90931403F0E0E855AB
:10185000FD4F8087D0CF8536910508F491CF85E084
:101860008093A9020E94F8046093AA027093AB02CD
:101870008093AC029093AD0283CFC11181CF1092BF
:10188000AF021092AE027CCFCF92DF92EF92FF9226
:101890000F931F93E82FF92F05C00150110921095B
:1018A000310961F1908196239417B9F305C0015075
:1018B00011092109310911F1908196239413F7CF71
:1018C000C12CD12CE12CF12C0AC08FEFC81AD80AF8
:1018D000E80AF80A0C151D052E053F0579F08081F0
:1018E0008623841791F36C2D7D2D8E2D9F2D1F91B6
:1018F0000F91FF90EF90DF90CF90089560E070E03F
:1019000080E090E01F910F91FF90EF90DF90CF90DB
:101910000895CF93DF93EC0170E0FB01EE0FFF1F02
:10192000DF01A60FB71FAA5FBD4F12968C9195EFEE
:10193000980F9230D0F481E0809380008BE0809308
:101940008100E60FF71FEA5FFD4F80818883818168
:10195000898382818A83888161E00E94CB038981A7
:1019600061E0DF91CF910C94CB0397EF980F923009
:1019700038F483E08093B00084E08093B100E1CF3D
:10198000853021F09EEF980F923038F481E08093FB
:1019900090008BE080939100D4CF9AEF980F933012
:1019A00038F481E08093A0008BE08093A100C9CF40
:1019B0008C52833030F681E0809320018BE080935D
:1019C0002101BFCFFC01862F108211821282648315
:1019D00060E00C94CB03CF93DF93EC01862F262F8E
:1019E00030E0F901E659FD4FE491EA87F901EC5D39
:1019F000FD4FE491F0E0EE0FFF1FE65FFD4F2591F4
:101A000034913F832E8361E00E94CB0384E090E019
:101A1000998388838CE090E00E94CD139B838A8316
:101A2000892B21F485E692E00E94F01530E020E059
:101A300048815981CA01880F991F840F951F281763
:101A4000390740F4EA81FB81E20FF31F10822F5F18
:101A50003F4FEECF0E94CD139D838C83892B21F4C1
:101A600085E692E00E94F01590E080E0488159817F
:101A70009A01220F331F240F351F8217930738F462
:101A8000EC81FD81E80FF91F10820196EFCFDF9105
:101A9000CF910895EBEDF4E01382128248EE53E00B
:101AA00060E070E0448355836683778384E592E049
:101AB0009183808325E331E03587248724E331E077
:101AC0003787268720E331E0318B208B21E331E01B
:101AD000338B228B22E331E0358B248B26E331E0FC
:101AE000378B268B118E128E138E148EE8E7F5E05D
:101AF0001382128244835583668377839183808324
:101B000025ED30E03587248724ED30E037872687C0
:101B100020ED30E0318B208B21ED30E0338B228BB8
:101B200022ED30E0358B248B26ED30E0378B268B91
:101B3000118E128E138E148EE5E1F6E0138212825E
:101B400044835583668377839183808385EC90E01B
:101B50009587848784EC90E09787868780EC90E077
:101B6000918B808B81EC90E0938B828B82EC90E068
:101B7000958B848B86EC90E0978B868B118E128EE2
:101B8000138E148E81E090E090930B0780930A07E8
:101B900010920C0810920D0810920E0810920F0867
:101BA0001092100810921108109212081092130847
:101BB0001092140810921508109216081092170827
:101BC000109218081092190810921B0810921A0807
:101BD00010921C0810921D0810921E0810921F08E7
:101BE00010922008109221081092220810922308C7
:101BF00010922408809380008BE08093810083E022
:101C00008093B00084E08093B1006AE080E097E0C8
:101C10000E94890C61E08BEF96E00E94890C62E0E3
:101C200086EF96E00E94890C69E081EF96E00E94C1
:101C3000890C6FE38CEE96E00E94E20C60E487EE84
:101C400096E00E94E20C61E482EE96E00E94E20CD3
:101C500062E48DED96E00E94E20C6CE388ED96E084
:101C60000E94E20C6DE383ED96E00E94E20C6EE3CD
:101C70008EEC96E00E94E20C63E483EC96E00E9416
:101C8000EB0C64E488EB96E00E94EB0CE2EBF6E0F0
:101C900011821082138212821582148249E050E070
:101CA00061E872E0CF010C946007CF93DF9300D01E
:101CB00000D0CDB7DEB7789484B5826084BD84B59A
:101CC000816084BD85B5826085BD85B5816085BD37
:101CD00080916E00816080936E00109281008091EF
:101CE0008100826080938100809181008160809377
:101CF0008100809180008160809380008091B1009C
:101D000084608093B1008091B00081608093B000C6
:101D10008091910082608093910080919100816018
:101D200080939100809190008160809390008091D9
:101D3000A10082608093A1008091A10081608093C6
:101D4000A1008091A00081608093A000809121017A
:101D50008260809321018091210181608093210123
:101D60008091200181608093200180917A008460BD
:101D700080937A0080917A00826080937A008091CB
:101D80007A00816080937A0080917A0080688093E5
:101D90007A001092C10085E196E00E948D0188E7EB
:101DA00095E00E948D018BED94E00E948D010E94D0
:101DB000D3046B017C0125E0822E912CA12CB12C47
:101DC0000E94D3046C197D098E099F09683E7340F7
:101DD00081059105A8F321E0821A9108A108B108B4
:101DE00088EEC80E83E0D81EE11CF11C811491041A
:101DF000A104B10429F761E08DE00E94CB0391E0DA
:101E0000909380008BE08093810023E02093B000CA
:101E100024E02093B10090939000809391009093E0
:101E2000A0008093A10049E050E06BE872E085E1FA
:101E300096E00E94B4014091B6065091B7066091B9
:101E4000B2067091B30685E196E00E94B40185E187
:101E500096E00E943F070E94F8046093CF047093BD
:101E6000D0048093D1049093D2041092C104FF2433
:101E7000F3940E94F8040E94581220E030E04AE7F0
:101E800054E40E9453132091D7043091D804409118
:101E9000D9045091DA040E94E6126093D30470933F
:101EA000D4048093D5049093D6040E94F804009142
:101EB000CF041091D0042091D1043091D204601B42
:101EC000710B820B930B693E73408105910590F075
:101ED0000E94F8046093CF047093D0048093D104DF
:101EE0009093D2046091CE046F256093CE048DE070
:101EF0000E949D030E9459068091CD04882309F415
:101F0000B4C22091CC048091CB042535D1F5811148
:101F100038C08091CA048F3F21F4F092C904F09236
:101F2000CB048091C9048F5F843308F051C0809343
:101F3000C9048091CB048823E9F28091C8048111FF
:101F4000D9CF8091C9048430A8F21092CB0483E0E9
:101F500090E00E94C606D82E84E090E00E94C6065B
:101F6000082F85E090E00E94C606182FD092C70483
:101F7000023009F441C188F50130B9F11092C90469
:101F8000B9CF2093CA04882361F28091C9048230BA
:101F900061F42093C80490E03091C10431110DC068
:101FA00083579B4FFC012083BCCF8330A0F39091DB
:101FB000C80491509093C804EECF323019F4875A78
:101FC0009B4FF0CF333009F0ACCF8B5D9B4FEACF06
:101FD0001092C9041092CB04ACCF043009F41CC297
:101FE000053061F60E945807C9CF86E090E00E9454
:101FF000C606E82E8FEF0E948E0685E50E948E06AB
:102000008D2D0E948E06123309F4EBC008F058C0E3
:102010001E3109F46AC038F4112309F472C060E07B
:1020200070E0CB01E6C01F3109F4ABC01532B9F73F
:1020300087E090E00E94D9068C0160E08E2D0E941E
:10204000CB038E2D90E0FC01E659FD4F6491FC011D
:10205000EC5DFD4FE491F0E0EE0FFF1FE051FE4F0D
:1020600085919491012E000C220B330B3F70462F6B
:102070000E94440C4B015C0181149104A104B10441
:1020800039F0FFEF8F1A9F0AAF0ABF0A2FE0B22282
:1020900086E00E948E068092C2049092C304A092B1
:1020A000C404B092C504882D0E948E06892D0E941A
:1020B0008E068A2D0E948E068B2D0E948E065EC093
:1020C000143499F068F41C3309F0A9CF82E7E812C0
:1020D00055C01091C60481E00E948E06812FEDCF7D
:1020E000153419F0163409F09ACF60E08E2D0E9455
:1020F000CB038E2D0E947403BC01990F880B990BA2
:102100006DC01A8219821C821B821E821D82609100
:10211000B2067091B3066115710541F04091B606A3
:102120005091B706CE0101960E9460071D81A12E35
:10213000BE8084E00E948E06812F0E948E0610E0F1
:1021400000E00A151B05A4F48D819E81081719076C
:1021500068F489819A81009749F0800F911FFC01F2
:1021600080810E948E060F5F1F4FEBCF80E0F9CF7A
:1021700089819A81009711F00E9469140E94450795
:10218000FDCEEE2DF0E0EE0FFF1FE05DFD4F108164
:1021900060E0812F0E94CB03163308F01653909114
:1021A0007B00812F8870977F892B80937B0017702D
:1021B000106410937C0080917A00806480937A0090
:1021C00080917A0086FDFCCF809178006091790043
:1021D000762F682F072E000C880B990B0E945A123D
:1021E00008C06091D3047091D4048091D50490917B
:1021F000D6040E94A206C2CF86E090E00E94C606E6
:10220000082F103209F493C068F51A3009F445C05C
:102210001E3109F480C0183009F0E4CE88E090E067
:102220000E94C606182F89E090E00E94C606E82E9C
:102230008AE090E00E94C606B82E8BE090E00E94F3
:10224000C606282F033409F0BAC0111193C04B2DD4
:102250006E2D83EC96E00E94270683EC96E00E94A8
:102260001408C0CE1C3349F1143609F46DC0123382
:1022700009F0B8CE0E94F8040E94581220E030E025
:102280004AE754E40E9453136093D7047093D80430
:102290008093D9049093DA04A5CE87E090E00E9461
:1022A000D9066C01602F85E097E00E940406B60114
:1022B00085E097E00E94AB0595CE87E090E00E9414
:1022C000C606182F023109F08DCE50E040E070E0D4
:1022D00060E090E080E00E94F1068FEF810F823095
:1022E00018F41093C6047ECE1092C60420E040E598
:1022F00060E083EC96E00E94270683EC96E00E9463
:10230000140820E040E560E088EB96E00E94270694
:1023100088EB96E0A4CF61E00E94CB0387E090E0D9
:102320000E94C606682F802F0E949D035BCE61E04D
:102330000E94CB0387E090E00E94C606682F70E001
:10234000802F0E94FC034ECE81114CCE87E090E09E
:102350000E94D9068C0189E090E00E94D9066C01A8
:102360008BE090E00E94D906AC01B601C8010E9442
:10237000F10638CE11508091C3069091C40618170B
:10238000190608F06ACF412F440F140F412F50E077
:10239000E091C506F091C606E40FF51FB082E0910A
:1023A000C506F091C606E40FF51FE1828091C506CF
:1023B0009091C606480F591FFA0122834ECF04346C
:1023C00009F010CE111103C04B2D6E2D9DCF115071
:1023D0008091B8069091B9061817190608F098CFA1
:1023E000412F440F140F412F50E0E091BA06F091B5
:1023F000BB06E40FF51FB082E091BA06F091BB0670
:10240000E40FF51FE1828091BA069091BB06480F58
:10241000591FFA0122837CCF61E085E097E00E949A
:10242000040670E060E085E097E00E94AB0569E09B
:1024300085E097E00E94040670E060E085E097E0A8
:102440000E94AB0562E085E097E00E94040670E020
:1024500060E085E097E00E94AB056AE085E097E0E8
:102460000E94040670E060E023CF0E94E40201CDE8
:102470008091B2069091B306009711F00E94691402
:102480008091BA069091BB060E9469148091BC06A7
:102490009091BD060E9469148091C5069091C60670
:1024A0000E9469148091C7069091C8060C94691423
:1024B000E89409C097FB3EF49095809570956195DE
:1024C0007F4F8F4F9F4F9923A9F0F92F96E9BB2794
:1024D0009395F695879577956795B795F111F8CF10
:1024E000FAF4BB0F11F460FF1BC06F5F7F4F8F4F7B
:1024F0009F4F16C0882311F096E911C0772321F071
:102500009EE8872F762F05C0662371F096E8862F08
:1025100070E060E02AF09A95660F771F881FDAF75F
:10252000880F9695879597F9089597F99F6780E8A2
:1025300070E060E008959FEF80EC089500240A9415
:102540001616170618060906089500240A9412168E
:102550001306140605060895092E0394000C11F4C1
:10256000882352F0BB0F40F4BF2B11F460FF04C06E
:102570006F5F7F4F8F4F9F4F089557FD9058440FC7
:10258000551F59F05F3F71F04795880F97FB991FD2
:1025900061F09F3F79F0879508951216130614068F
:1025A000551FF2CF4695F1DF08C01616170618061C
:1025B000991FF1CF86957105610508940895E894F7
:1025C000BB2766277727CB0197F908955058BB277B
:1025D000AA270E94FE120C94AC120E949E1238F0A0
:1025E0000E94A51220F039F49F3F19F426F40C94B0
:1025F0009B120EF4E095E7FB0C949512E92F0E94D4
:10260000BD1258F3BA17620773078407950720F0C5
:1026100079F4A6F50C94DF120EF4E0950B2EBA2F88
:10262000A02D0B01B90190010C01CA01A0011124D8
:10263000FF27591B99F0593F50F4503E68F11A1684
:10264000F040A22F232F342F4427585FF3CF469515
:1026500037952795A795F0405395C9F77EF41F1637
:10266000BA0B620B730B840BBAF09150A1F0FF0F01
:10267000BB1F661F771F881FC2F70EC0BA0F621FED
:10268000731F841F48F4879577956795B795F795DD
:102690009E3F08F0B0CF9395880F08F09927EE0F72
:1026A0009795879508950E9467130C94AC120E9429
:1026B000A51258F00E949E1240F029F45F3F29F0C5
:1026C0000C94951251110C94E0120C949B120E94E0
:1026D000BD1268F39923B1F3552391F3951B550B64
:1026E000BB27AA2762177307840738F09F5F5F4FE5
:1026F000220F331F441FAA1FA9F335D00E2E3AF024
:10270000E0E832D091505040E695001CCAF72BD03B
:10271000FE2F29D0660F771F881FBB1F261737078C
:102720004807AB07B0E809F0BB0B802DBF01FF27BE
:1027300093585F4F3AF09E3F510578F00C949512F4
:102740000C94E0125F3FE4F3983ED4F386957795BE
:102750006795B795F7959F5FC9F7880F911D969577
:10276000879597F90895E1E0660F771F881FBB1FD3
:10277000621773078407BA0720F0621B730B840B80
:10278000BA0BEE1F88F7E0950895EE0FFF1F881F24
:102790008BBF0790F691E02D19940F931F93CF9361
:1027A000DF938230910510F482E090E0E0912708F9
:1027B000F091280830E020E0B0E0A0E0309799F4F4
:1027C0002115310509F44AC0281B390B2430310585
:1027D000D8F58A819B816115710589F1FB0193838D
:1027E0008283FE0111C0408151810281138148170B
:1027F0005907E0F04817590799F4109761F01296BD
:102800000C93129713961C933296CF01DF91CF91C0
:102810001F910F9108950093270810932808F4CF73
:102820002115310551F04217530738F0A901DB019A
:102830009A01BD01DF01F801C1CFEF01F9CF9093FB
:10284000280880932708CDCFFE01E20FF31F819364
:1028500091932250310939832883D7CF20912508BD
:1028600030912608232B41F420910202309103027B
:102870003093260820932508209100023091010210
:102880002115310541F42DB73EB740910402509116
:102890000502241B350BE0912508F0912608E2176C
:1028A000F307A0F42E1B3F0B2817390778F0AC0173
:1028B0004E5F5F4F2417350748F04E0F5F1F509350
:1028C000260840932508819391939FCFF0E0E0E0A4
:1028D0009CCFCF93DF930097E9F0FC0132971382EE
:1028E0001282A0912708B0912808ED0130E020E085
:1028F0001097A1F420813181820F931F2091250828
:10290000309126082817390709F061C0F09326088E
:10291000E0932508DF91CF910895EA01CE17DF07F4
:10292000E8F54A815B819E0141155105B1F7E90146
:10293000FB83EA8349915991C40FD51FEC17FD071A
:1029400061F4808191810296840F951FE90199833A
:102950008883828193819B838A83F0E0E0E01296F2
:102960008D919C9113970097B9F52D913C911197FA
:10297000CD010296820F931F2091250830912608E1
:102980002817390739F6309751F510922808109218
:102990002708B0932608A0932508BCCFD383C28311
:1029A00040815181840F951FC817D90761F44E5F8C
:1029B0005F4F88819981480F591F518340838A81D5
:1029C0009B81938382832115310509F0B0CFF09369
:1029D0002808E09327089ECFFD01DC01C0CF1382B9
:1029E0001282D7CF4F925F926F927F928F929F9277
:1029F000AF92BF92CF92DF92EF92FF920F931F930D
:102A0000CF93DF938C01009799F4CB01DF91CF91A5
:102A10001F910F91FF90EF90DF90CF90BF90AF90FC
:102A20009F908F907F906F905F904F900C94CD13FC
:102A3000FC01E60FF71F9C0122503109E217F30752
:102A400008F4AEC0D901CD91DC911197C617D70714
:102A500020F1C530D10578F0CE010497861797078D
:102A600050F0C61BD70B2297C193D1936D937C93E3
:102A7000CF010E946914C801DF91CF911F910F917E
:102A8000FF90EF90DF90CF90BF90AF909F908F908E
:102A90007F906F905F904F9008955B01AC1ABD0AD4
:102AA0004C018C0E9D1EA0912708B0912808512C36
:102AB000412CF12CE12C109731F580912508909153
:102AC00026088815990509F05CC04616570608F0D7
:102AD00058C08091000290910102009741F48DB797
:102AE0009EB74091040250910502841B950BE81794
:102AF000F90708F055C0F0932608E0932508F9017E
:102B000071836083B8CF8D919C91119712966C90D0
:102B1000129713967C901397A815B90559F56C0177
:102B200042E0C40ED11CCA14DB0420F1AC014A19E6
:102B30005B09DA011296159780F0628273825183E5
:102B40004083D9016D937C93E114F10471F0D701B6
:102B50001396FC93EE9312978ECF22968C0F9D1FA7
:102B6000F90191838083F301EFCFF0932808E0937C
:102B7000270881CF4816590608F42C017D01D3019E
:102B80009ACFCB010E94CD137C01009749F0AE0192
:102B9000B8010E94E015C8010E94691487016BCF3B
:102BA00010E000E068CFFB01DC0104C08D910190D2
:102BB000801921F441505040C8F7881B990B0895A3
:102BC000FB01DC0102C001900D9241505040D8F74A
:102BD0000895FB01DC0101900D920020E1F70895BA
:102BE0000F931F93CF93DF93E0912B08F0912C0864
:102BF0002381EC0110E000E021FD08C00FEF1FEF82
:102C000014C01995892B11F00FEF1FEF8991609176
:102C10002B0870912C08DB011896ED91FC91811125
:102C2000F0CF8AE01995892B49F7C801DF91CF9140
:102C30001F910F91089511E0C9E5D1E000E006C0B1
:102C4000802FFE010E94C5132196011DCA35D107B0
:0A2C500080E00807A9F7F894FFCF11
:102C5A0000002F08800000000021200B2829072FE0
:102C6A0030063938040000000000000000000000AF
:102C7A000023220C2425082A2B093B3A05000000D0
:102C8A0036003700380039003A003B003C003D006E
:102C9A003E003F004000410042004300440045001E
:102CAA00000000007702B401FA01C4022B020902F3
:102CBA001D020D0A005468657265206973206E6FE3
:102CCA007420656E6F756768207370616365210D86
:102CDA000034372E30312E31303100566572736927
:062CEA006F6E3A200000AD
:00000001FF
