:100000001BC300000C946E620C949F620C94D0622F
:100010000C9401630C9432630C9463630C949463AA
:100020000C94C5630C9444600C9444600C9444603C
:1000300034C300000C940D3C30C300002EC30000FC
:100040002CC300000C94505A28C3000026C30000A3
:1000500024C3000022C3000020C300000C94F663F8
:100060001CC300000C948B680C94C16816C300007C
:1000700014C3000012C3000010C300000EC3000030
:100080000C947D5A0AC3000008C3000006C3000098
:1000900004C3000002C3000000C300000C94255EEE
:1000A000FCC20000FAC200000C94AA5AF6C200007A
:1000B000F4C20000F2C20000F0C200000C94D75A53
:1000C000ECC20000EAC20000E8C200000C943669ED
:1000D0000C946C69E2C200000C94E1690C94176AFC
:1000E000DCC2000002183616631676167616A616BF
:1000F000F2177616071A071A071A071A071A071AA5
:10010000071AFD16C0161B17071A071A071A4A17EF
:1001100088189517B217D21775178D16071A071A70
:1001200010181818071A071A071A071A3A18271862
:10013000071A071A071A071A071A071A071A071AB7
:10014000071A071A071A071A6F187818071A071AD2
:10015000071A071A071A071A071A071AC1189C184C
:10016000071ACD187119486212621A622662336248
:10017000546261624A654F6554655E656865E16514
:1001800072657A6582658C659665A065AF65B965AF
:10019000E165C365CD65D76503660666F565F965F6
:1001A000FF653D660A660E66146618661C66226662
:1001B00026662A663D66306634663866084AD73B4E
:1001C0003BCE016E84BCBFFDC12F3D6C74319ABD26
:1001D00056833DDA3D00C77F11BED9E4BB4C3E914A
:1001E0006BAAAABE000000803F08000000BE922457
:1001F00049123EABAAAA2ABECDCCCC4C3E00000090
:1002000080BEABAAAAAA3E00000000BF000000808A
:100210003F0000000000084178D3BB4387D1133D65
:10022000190E3CC3BD4282AD2B3E68EC8276BED92E
:100230008FE1A93E4C80EFFFBE01C4FF7F3F00006D
:1002400000000007634236B79BD8A71A39685618D2
:10025000AEBAAB558C1D3CB7CC5763BD6DEDFD758B
:100260003EF6177231BF000000803F003F065B4F33
:10027000666D7D077F6F777C395E7971BF86DBCFD6
:10028000E6EDFD87FFEFF7FCB9DEF9F100407C44B5
:100290007C007C005C547454547C70107C74545CFE
:1002A0007C545C40407C7C547C74547C0004002072
:1002B00020200000002000000000000030007C82B0
:1002C000827C00310042FE0200003200468A9262C7
:1002D0000033004492926C0034001C64FE0400352C
:1002E00000F292928C0036007C92924C003700C053
:1002F0008E90E00038006C92926C0039006492920B
:100300007C006100042A2A1E006200FE12120C000A
:1003100063000C1212120064000C1212FE00650041
:100320001C2A2A18006600103E505000670008156D
:10033000151E006800FE101E00006900002E00005F
:10034000006A0002012E00006B00FE081412006C0F
:100350000000FE0200006D001E100E100E6E001E4A
:1003600010100E006F000C12120C0070001F121201
:100370000C0071000C12121F0072001E08101000F9
:10038000730012292512007400103E12000075003F
:100390001C02021E00761804020418007718061CBE
:1003A0000618007800120C0C120079001805051EC2
:1003B000007A0012161A120041007E88887E0042E0
:1003C00000FE92926C0043007C828244004400FE56
:1003D00082827C004500FE929282004600FE909050
:1003E000800047007C82925C004800FE1010FE00F6
:1003F000490082FE8200004A000C0202FC004B0011
:10040000FE1028C6004C00FE020202004D00FE4015
:100410003040FE4E00FE403008FE4F007C8282825B
:100420007C5000FE9090600051007C828A847A5259
:1004300000FE9894620053006492924C0054008035
:10044000FE8080005500FC0202FC005600F00C0209
:100450000CF05700FE043804FE5800C63838C600B9
:1004600059C0201E20C0005A00869AB2C2002C003B
:10047000010E0C00002E00000606000025725478C4
:100480001E2A4E2100007A0000003F00204A300062
:10049000002D0010101010002B08083E0808002F37
:1004A00000020C3040002A2214081422003A0000F6
:1004B000140000002200C000C000002328FE28FE17
:1004C00028002800007C820000290000827C0000B7
:1004D0003B0002240000007E0040804080003B0082
:1004E00002240000003D0028282828007C0000FE8F
:1004F0000000003E0082442810003C001028448286
:10050000004000000000000000000A0B02090C0D72
:100510000E080703040100000000000000000000B6
:1005200000000000000000000000000000000000CB
:100530000000000012111000000000000000000088
:1005400000000000000000000000000000000102A8
:1005500010202008081020401020408002010201D5
:10056000080402010102040810204080804020108D
:1005700008040201800402018040201008040201E6
:10058000080402010102040810204080010204084E
:100590001020408005050505070508080808020227
:1005A00002020A0A0808040404040101010101010D
:1005B00001010303030303030303040707070C0CF0
:1005C0000C0C0C0C0C0C02020202060606060606B7
:1005D00006060B0B0B0B0B0B0B0B00002000230074
:1005E000260029002C002F0032000001000003012A
:1005F0000601090100002200250028002B002E0022
:100600003100340002010000050108010B01000067
:100610002100240027002A002D00300033000101B2
:100620000000040107010A01F6141327445DF36872
:100630009E69496A6F15172711241FBECFEFD1E2BB
:10064000DEBFCDBF00E00CBF13E0A0E0B2E0E8E108
:10065000F8EE00E00BBF02C007900D92AA39B10777
:10066000D9F72DE0AAE9B3E001C01D92AE35B2077B
:10067000E1F716E0C4E3D6E000E006C022970109E6
:10068000FE010BBF0E943671C832D10780E0080717
:10069000A9F70E948D6A0C94FB73B2CCCF92DF92C3
:1006A000EF92FF920F931F93E82FF92F05C001508F
:1006B00011092109310961F1908196239417B9F349
:1006C00005C0015011092109310911F190819623CA
:1006D0009413F7CFC12CD12CE12CF12C0AC08FEF51
:1006E000C81AD80AE80AF80A0C151D052E053F0598
:1006F00079F080818623841791F36C2D7D2D8E2DCA
:100700009F2D1F910F91FF90EF90DF90CF90089554
:1007100060E070E080E090E01F910F91FF90EF901B
:10072000DF90CF90089583E695E00E9439290E94DA
:10073000AC66892B21F483E695E00C94522983E67C
:1007400095E00C94442983EE94E00E9439290E949C
:10075000AC66892B21F483EE94E00C94522983EE4D
:1007600094E00C9444290C94ED730C94E573CF92AF
:10077000DF92EF92FF920F931F93CF93DF931F921D
:100780001F92CDB7DEB76C018B017C0184E0E80ECF
:10079000F11CC60169837A830E94E573F801819395
:1007A0008F01FFEFCF1ADF0A69817A81CE14DF044F
:1007B00081F7CB010F900F90DF91CF911F910F9197
:1007C000FF90EF90DF90CF900895EF92FF920F93FC
:1007D0001F93CF93DF931F92CDB7DEB77C01FC014F
:1007E00000811181C80169830E94E57369816817DE
:1007F00019F0C8010E94ED73C7010F90DF91CF91EE
:100800001F910F91FF90EF900895BF92CF92DF92CA
:10081000EF92FF920F931F93CF93DF9300D0CDB74A
:10082000DEB78C01B62EE62EF72E6C0184E0C80EE2
:10083000D11CF70161917F011A830983CE010196D2
:100840007B83C3DF0F5F1F4F7B810C151D0589F76D
:100850008B2D972F0F900F900F90DF91CF911F91BD
:100860000F91FF90EF90DF90CF90BF900895CF92BF
:10087000DF92EF92FF920F931F93CF93DF931F921C
:100880001F92CDB7DEB76C018C0183E5E82EF12C09
:10089000F80161918F01FA82E982CE01019695DF1C
:1008A000FFEFEF1AFF0A87E5E816F10489F7C601A2
:1008B0000F900F90DF91CF911F910F91FF90EF90CC
:1008C000DF90CF9008956BEA80E590E04CDF6DEC0F
:1008D00081E590E048DF6BEA82E590E044DF8BE061
:1008E00092E0C5DF62E074E087E590E08EDF66E0CD
:1008F00074E08BE590E089DF6AE074E08FE590E0DA
:1009000084DF62EE73E083E690E07FDF66EE73E003
:1009100087E690E07ADF6AEE73E08BE690E075DFC1
:1009200062EC73E08FE690E070DF6FEE83E790E0BB
:100930001ADF6BEA82E890E016DF60919D0483E89D
:1009400090E011DF6FEE84E890E00DCF6BEA80E875
:1009500090E009DF6DEC81E890E005DF6BEA82E86A
:1009600090E001DF60919D0483E890E0FCDE6FEE93
:1009700084E890E0F8CE0F931F93CF93DF9380E548
:1009800090E0F3DE8B3A29F481E590E0EEDE8D3CD9
:1009900071F099DF80E890E0E8DE8B3A09F04BC017
:1009A00081E890E0E2DE8D3C09F045C049C082E577
:1009B00090E0DBDE8B3A09F037C083E790E0D5DECC
:1009C0008F3E91F50BE012E0C3E5D0E0CE010E942E
:1009D000E573F80181938F012196C735D105B1F7F1
:1009E00062E074E087E590E0C2DE66E074E08BE5EB
:1009F00090E0BDDE6AE074E08FE590E0B8DE62EE84
:100A000073E083E690E0B3DE66EE73E087E690E0A5
:100A1000AEDE6AEE73E08BE690E0A9DE62EC73E096
:100A20008FE690E0A4DEB6CF66E772E08DE79BE04C
:100A30000E94FB6AAFCFDF91CF911F910F9186CFBC
:100A400082E890E092DE8B3A81F484E890E08DDEDB
:100A50008F3E59F483E890E00E94E57380939D04F3
:100A6000DF91CF911F910F9108956CE972E08DE7AE
:100A70009BE0DF91CF911F910F910C94FB6A6091E5
:100A800013027091140271956195710983E695E0E6
:100A90000E947A29609113027091140283EE94E00F
:100AA0000C947A29609113027091140283E695E008
:100AB0000E947A29609113027091140271956195D8
:100AC000710983EE94E00C947A296091130270917D
:100AD000140277FF02C06D5F7F4F7595679575951E
:100AE000679583E695E00E947A29609113027091E0
:100AF000140271956195710983EE94E00C947A2942
:100B0000609113027091140283E695E00E947A29A5
:100B1000609113027091140277FF02C06D5F7F4FE6
:100B2000759567957595679571956195710983EED2
:100B300094E00C947A2960911302709114027195DB
:100B40006195710983E695E00E947A29609113020C
:100B50007091140277FF02C06F5F7F4F75956795A4
:100B600083EE94E00C947A29609113027091140240
:100B700077FF02C06F5F7F4F75956795719561959F
:100B8000710983E695E00E947A29609113027091C1
:100B9000140283EE94E00C947A2960911302709110
:100BA000140271956195710983E695E00E947A2996
:100BB000609113027091140271956195710983EE31
:100BC00094E00C947A29609113027091140283E6E8
:100BD00095E00E947A29609113027091140283EECD
:100BE00094E00C947A2960E070E083E695E00E943E
:100BF0007A2960E070E083EE94E00C947A298DE726
:100C00009BE00C94E86AFC01ED59FB4F80818093D6
:100C1000BF0481818093C0048091BF049091C0047F
:100C20000895A1ECB4E0FC01ED59FB4F80818C9359
:100C300081818093C20482818093C30483818093E5
:100C4000C4046D917D918D919C910895FC01ED59A5
:100C5000FB4F80818093C10481818093C204828193
:100C60008093C30483818093C4046091C104709114
:100C7000C2048091C3049091C4040895EEEAF3E0A5
:100C800020E030E08D599B4F2617370744F4DC01F4
:100C9000A20FB31F4C9141932F5F3F4FF5CFFB0144
:100CA000E255FC4F10828EEA93E00895EEE9F3E0FE
:100CB00020E030E08D599B4F261737075CF4203138
:100CC000310541F0DC01A20FB31F4C9141932F5F1E
:100CD0003F4FF2CF8EE993E00895FC01DB011296BD
:100CE0004D915D916D917C911597428353836483FF
:100CF000758316968C911697868317964D915D9104
:100D00006D917C911A9747835087618772871B96F4
:100D10004D915D916D917C911E97438754876587B6
:100D200076871F964D915D916D917C915297478783
:100D3000508B618B728B53964D915D916D917C912F
:100D40005697438B548B658B768B57964D915D915F
:100D50006D917C915A97478B508F618F728F5B9604
:100D60004D915D916D917C915E97438F548F658F0E
:100D7000768F5F964D915D916D917C919297478FA3
:100D800050A361A372A393964D915D916D917C9157
:100D9000969743A354A365A376A397964D915D912F
:100DA0006D917C919A9747A350A761A772A79B96D4
:100DB0004D915D916D917C919E9743A754A765A736
:100DC00076A79F964D915D916D917C91D29747A7A3
:100DD00050AB61AB72ABD3968C91D39783ABD49667
:100DE0008C9184ABCF010895CF93DF93EC0186E41F
:100DF00093E099838883CE0182599F4F0E94726B42
:100E0000CE01DF91CF910C94C260E7EAF4E020E0DC
:100E100030E0419151914817590791F0452B41F429
:100E2000F901EE0FFF1FE955FB4F9183808308C046
:100E30002F5F3F4F2C30310561F780E090E008953F
:100E4000C90108954F925F926F927F928F929F9205
:100E5000AF92BF92CF92DF92EF92FF920F931F93C8
:100E6000CF93DF93CDB7DEB7E9970FB6F894DEBF27
:100E70000FBECDBF70906904803209F46DC240F599
:100E80008A3009F445C078F4853009F455C020F45F
:100E9000833009F430C2EDC4883009F43FC1893091
:100EA00009F4B9C1E6C48C3009F402C108F48FC159
:100EB000843109F432C28E3109F0DBC461E0872D40
:100EC0000E943E6660916A04872D0E947766D1C4B5
:100ED000823309F495C258F4823209F448C208F406
:100EE00066C28832D1F1893209F4AAC1C2C48D33F5
:100EF000F1F038F4843309F496C28C3309F448C114
:100F0000B8C48E3309F4D8C2803409F4D1C3B1C453
:100F100087E090E078DE8C01672D81E098E00E9408
:100F20002426B80181E098E00E943026A2C4711006
:100F3000A0C410916A041FC386E090E064DEBC0187
:100F400083E695E00E94662988E090E05CDEBC01C3
:100F500083EE94E00E9466298CC487E090E053DE23
:100F60008C0189E090E072DE4B015C0181E0781237
:100F700025C061E0CE0101960E943855BE016F5F29
:100F80007F4F87E196E0A9DEB501A40187E196E0F5
:100F90000E944D57B801882777FD8095982F0E94B1
:100FA000846D4B015C01AB01BC0187E196E00E94BE
:100FB0006357B501A40187E196E027C0E2E07E1205
:100FC00027C062E0CE0101960E943855BE016F5FD6
:100FD0007F4F8CE496E081DEB501A4018CE496E0BD
:100FE0000E944D57B801882777FD8095982F0E9461
:100FF000846D4B015C01AB01BC018CE496E00E9466
:101000006357B501A4018CE496E00E94BD5731C43A
:10101000F3E07F1225C063E0CE0101960E943855AF
:10102000BE016F5F7F4F81E896E057DEB501A401F6
:1010300081E896E00E944D57B801882777FD80959A
:10104000982F0E94846D4B015C01AB01BC0181E8CB
:1010500096E00E946357B501A40181E896E0D5CFE0
:1010600084E0781206C464E0CE0101960E943855EF
:10107000BE016F5F7F4F86EB96E02FDEB501A401C6
:1010800086EB96E00E944D57B801882777FD809542
:10109000982F0E94846D4B015C01AB01BC0186EB73
:1010A00096E00E946357B501A40186EB96E0ADCFB0
:1010B00020916A0488E090E028AFA5DD8C018AE0E9
:1010C00090E0AFDD4B015C0128AD213071F4B80137
:1010D000882777FD8095982F0E94846D8B019C0155
:1010E000B501A40189EC94E010C0223009F0C1C31D
:1010F000B801882777FD8095982F0E94846D8B0119
:101100009C01B501A40183ED94E00E94742868E27B
:1011100070E080E090E00E946F64ABC310916A04BD
:1011200090906B04B0906C04A0906D0400916E04DC
:101130008FED97E0772059F00E94574587118CC3B7
:101140008FED97E00E945A45811386C30AC00E9422
:101150005745811188C38FED97E00E945A4581134E
:1011600082C3992049F06FEF690D2A2D4B2D8FED29
:1011700097E00E94604607C0202F4A2D6B2D8FED0F
:1011800097E00E941C478FED97E00E94484771C38B
:1011900010916A04E1E17E126CC325DD153050F434
:1011A00010939D0483E890E0E0DA811709F461C3AD
:1011B000612F09C010929D0483E890E0D6DA88235D
:1011C00009F457C360E083E890E0CDDA52C3809120
:1011D0006A04E72DF0E0EE0FFF1FED5AFD4F81305E
:1011E00011F4008101C00181B0906B0410E0C801CE
:1011F0000CDEFC01EE0FFF1FE80FF91FE75FF74F52
:1012000020813181428129833A834B83F4EBFB15A2
:1012100008F42FC3E3C083ED97E00E94574587157C
:1012200029F0672D83ED97E00E94951F87E090E0FD
:10123000F8DCAB01BC0183ED97E00E94B61F19C337
:101240008EE997E00E945745871529F0672D8EE9B2
:1012500097E00E94933D80916A048130C1F410911F
:101260006B0440916C0460916D04772767FD709565
:101270008BE090E049AF02DD612F772767FD709525
:101280009C0149AD8EE997E00E94AF3FF2C28230E7
:1012900099F4B0906B0440916C0460E170E08AE0D6
:1012A00090E049AF03DD8C0120E149AD6B2D8EE963
:1012B00097E00E94BA3DDDC2833079F421E080914D
:1012C0006B04811101C020E040916D0460916C04B9
:1012D0008EE997E00E94E93FCCC2843009F0C9C290
:1012E00088E090E09EDCAB01BC0123E08EE997E052
:1012F0000E94B940BEC28FEC97E00E945745871507
:1013000029F0672D8FEC97E00E94BB4561E080914A
:101310006A04811113C060E011C08FEC97E00E9455
:101320005745871529F0672D8FEC97E00E94BB4544
:1013300080916A04823038F4682F61708FEC97E0F6
:101340000E947F4596C261E0823009F460E08FEC34
:1013500097E00E948F458DC261E0872D0E943E6616
:1013600060916A0470E0872D0E94266582C261E068
:10137000872D0E943E6687E090E045DC5C0189E0B5
:1013800090E041DC672D70E0181619065CF48C01C2
:10139000222717FD2095322FA50183E196E00E94B8
:1013A0002E2067C283E196E00E94FA2062C2B090CC
:1013B0006A0484EB8B1508F45CC2072D10E0C801A9
:1013C00024DDFC01EE0FFF1FE80FF91FE75FF74F69
:1013D00020813181428129833A834B83CE0101965A
:1013E0000E946B5C811105C0B801CE0101960E947C
:1013F000CF5B6B2D70E0CE0101960E94075C39C275
:101400000E9440640E94826D20E030E04AE754E48C
:101410000E94E96C60935F047093600480936104A0
:101420009093620426C2711024C287E090E0EBDB47
:101430008C0189E090E0E7DBBC01882777FD80958F
:10144000982F0E94846D20E030E040E85EE30E9427
:10145000FC6E4B015C016093EE037093EF0380938D
:10146000F0039093F103B801882777FD8095982FBA
:101470000E94846D90582CEE31E548E35EE30E94B3
:10148000FC6E6093CE037093CF038093D003909350
:10149000D103C501B4010E94516D9B0177FF04C0C7
:1014A00022273327261B370B223031050CF4E1C1EC
:1014B00081E080932904DDC110916A04E1E07E128D
:1014C00032C088E090E0C2DB4B015C018CE090E030
:1014D0009ADB97FF03C0919581959109113091F4A2
:1014E000BC01882777FD8095982F0E94846D8B0121
:1014F0009C01C12CD12CE12CF12CB501A40183E677
:1015000095E0D3C0123009F0B4C1BC01882777FD43
:101510008095982F0E94846D8B019C01C12CD12C49
:10152000E12CF12CBEC0F2E07F1222C088E090E0F6
:101530006ADB113061F4BC01882777FD8095982F14
:101540000E94846DAB01BC0183E695E00EC01230B1
:1015500009F08FC1BC01882777FD8095982F0E94E4
:10156000846DAB01BC0183EE94E00E946F2B81C1BE
:1015700083E078120DC088E090E045DBBC011130BB
:1015800021F0123009F075C1E3CC83E695E0E2CC9E
:10159000E4E07E1213C0113031F440E050E0BA01B3
:1015A00083E695E008C0123009F063C140E050E0E6
:1015B000BA0183EE94E00E943E295BC1F5E07F1200
:1015C00058C188E090E042DB4B015C018CE090E088
:1015D0001ADB1130B9F4BC01882777FD8095982F6C
:1015E0000E94846D2B013C0144275527BA014819FC
:1015F00059096A097B09C12CD12CE12CF12C9301EA
:10160000820149C01230F9F4BC01882777FD80952A
:10161000982F0E94846D2B013C01C12CD12CE12C10
:10162000F12C8B019C01B501A40183E695E00E9499
:10163000B12B44275527BA01481959096A097B0972
:101640009301820130C0133091F4BC01882777FDEB
:101650008095982F0E94846D2B013C01B094A0943A
:1016600090948094811C911CA11CB11C0CC014305E
:1016700009F0FFC0BC01882777FD8095982F0E9454
:10168000846D2B013C01C12CD12CE12CF12C930158
:101690008201B501A40183E695E00E94B12B93017C
:1016A0008201B501A40183EE94E00E94B12BE1C058
:1016B000A0906A04B0906B048091C5049091C60418
:1016C0000097B1F04F960E9457458A15B1F10091ED
:1016D000C5041091C6040115110551F080EF92E088
:1016E000F80191838083C8017FDBC8010E949A6A58
:1016F00084E691E00E94996A8C016A2D0E941A4941
:101700001093C6040093C50440E052EC61E070E021
:10171000C8010E94E84765E070E080E090E00E9428
:101720006F648091C5049091C6040E94D84B62E317
:1017300070E080E090E00E946F64F1E07F120AC0E8
:1017400040916C046B2D8091C5049091C6040E9459
:10175000944E8FC082E078120EC000916E042091EA
:101760006D0440916C046B2D8091C5049091C6046A
:101770000E942E4F7EC0E3E07E1208C06B2D809148
:10178000C5049091C6040E94E84F73C0F4E07F1234
:101790001CC089E090E05ADA9B01AC018DE090E03A
:1017A00028AF3EAB49AF5FAB3CDAC12CD12C7B01FB
:1017B0008C0128AD3EA949AD5FA96B2D8091C50470
:1017C0009091C6040E946C4C54C085E078121CC0F5
:1017D00089E090E03BDA9B01AC018DE090E028AF1E
:1017E0003EAB49AF5FAB1DDAC12CD12C7B018C0124
:1017F00028AD3EA949AD5FA96B2D8091C50490919C
:10180000C6040E94384D35C0E6E07E120CC089E067
:1018100090E0F9D9AC016B2D8091C5049091C6047C
:101820000E94785026C0F7E07F1208C06B2D80918F
:10183000C5049091C6040E94044E1BC088E0781233
:1018400018C028E230E040E06B2D8091C5049091F3
:10185000C6040E940E510DC0412F672D8FED97E0F9
:101860000E94AF467ECC6CE28FED97E00E94EC4682
:1018700078CCE9960FB6F894DEBF0FBECDBFDF91EE
:10188000CF911F910F91FF90EF90DF90CF90BF907D
:10189000AF909F908F907F906F905F904F90089542
:1018A000BC01882777FD8095982F0E94846D9B014D
:1018B000AC0160E070EC8FE794E40E94E96C20E0FA
:1018C00030E040E85FE30E941E6C9B01AC0160E0E9
:1018D00070E48CE196E40E94E96C20E030E44CE195
:1018E00056E40E94E96C0E94BC6E20E030E443E5BF
:1018F00055E40E94E96C2FE03FEC4BE55BE30E946E
:101900001F6C9B01AC0160E070E080E89FE30E94E7
:10191000E96C23E333E948E853E40C941E6C089522
:101920008AE30E9401659093A2048093A104BC0104
:10193000882777FD8095982F0E94846D20E030E005
:1019400040E85AE30E94FC6E20E030E040E751E4BA
:101950000C94FC6E08954F925F926F927F928F92DB
:101960009F92AF92BF92CF92DF92EF92FF920F932E
:101970001F93CF93DF9300D01F92CDB7DEB786E1E0
:1019800097E00E94A43190586093570470935804D4
:101990008093590490935A0420910E0430910F04BF
:1019A00040911004509111040E941E6C6B017C0147
:1019B0008090160490901704A0901804B090190419
:1019C0000E94516D672B79F0A7019601C501B40102
:1019D0000E941F6C60931604709317048093180480
:1019E0009093190408C010921604109217041092D4
:1019F0001804109219048090470490904804A09015
:101A00004904B0904A0480921A0490921B04A09258
:101A10001C04B0921D0420910204309103044091F3
:101A2000040450910504C701B6010E94FC6E6B01CD
:101A30007C012091160430911704409118045091B4
:101A40001904609106047091070480910804909134
:101A500009040E94FC6E9B01AC01C701B6010E9403
:101A60001F6C6B017C0120910A0430910B044091A2
:101A70000C0450910D04C501B4010E94FC6E9B0141
:101A8000AC01C701B6010E941F6C6B017C0120E014
:101A900030E0A9010E94AC6E20E030E040EA50E462
:101AA00018162CF4C701B6010E941F6C04C0C701B0
:101AB000B6010E941E6C609312047093130480930D
:101AC00014049093150440901204509013046090F5
:101AD000140470901504C090D203D090D303E0900A
:101AE000D403F090D503A7019601C301B2010E946F
:101AF0001E6C4B015C01C301B2019058A701960115
:101B00000E941E6C6B017C0180912904882349F09E
:101B1000109243041092440410924504109246041B
:101B20003DC083E695E00E94602969837A838B83B8
:101B30009C8383EE94E00E9460292B013C01698123
:101B40007A818B819C810E94516D8B0177FF04C04B
:101B500000271127061B170BC301B2010E94516D0C
:101B60009B0177FF04C022273327261B370BB801C0
:101B7000621B730B882777FD8095982F0E94846DD8
:101B80002DEC3CEC4CE85FE30E94FC6E6093430458
:101B9000709344048093450490934604409043041A
:101BA00050904404609045047090460420E030E07A
:101BB000A901C301B2010E94AC6E20E030E0A9018E
:101BC0001816D4F5C501B4010E94AC6E1816CCF4F9
:101BD000C301B2010E94516D9B0177FF04C022270F
:101BE0003327261B370BB901882777FD8095982F5F
:101BF0000E94846D9B01AC01C701B6010E941E6C5E
:101C000018C0C301B2010E94516D9B0177FF04C04F
:101C100022273327261B370BB901882777FD8095AC
:101C2000982F0E94846D9B01AC01C701B6010E94F0
:101C30001F6C6B017C0142C0C301B2010E94E56CC4
:101C400087FF3CC020E030E0A901C701B6010E9437
:101C5000AC6E1816CCF4C301B2010E94516D9B0109
:101C600077FF04C022273327261B370BB9018827AB
:101C700077FD8095982F0E94846D9B01AC01C50172
:101C8000B4010E941E6C18C0C301B2010E94516DC4
:101C90009B0177FF04C022273327261B370BB9018E
:101CA000882777FD8095982F0E94846D9B01AC0159
:101CB000C501B4010E941F6C4B015C0120E030E0C3
:101CC0004FE753ECC501B4010E94E56C87FD11C0DC
:101CD00020E030E04FE753E4C501B4010E94AC6E50
:101CE00018166CF4812C912C8FE7A82E83E4B82E63
:101CF00006C0812C912C0FE7A02E03ECB02E20E023
:101D000030E04FE753ECC701B6010E94E56C87FD58
:101D100011C020E030E04FE753E4C701B6010E9454
:101D2000AC6E18166CF4C12CD12C1FE7E12E13E415
:101D3000F12E06C0C12CD12CBFE7EB2EB3ECFB2E4D
:101D4000C501B4010E94516D83E695E00E947A2995
:101D5000C701B6010E94516D83EE94E00F900F9081
:101D60000F900F90DF91CF911F910F91FF90EF9007
:101D7000DF90CF90BF90AF909F908F907F906F90AB
:101D80005F904F900C947A294F925F926F927F925E
:101D90008F929F92AF92BF92CF92DF92EF92FF927B
:101DA0000F931F93CF93DF9383EE94E00E946029FB
:101DB0006B017C0183E695E00E9460299B01AC01E8
:101DC000C701B6010E941E6C20E030E040E05FE3F6
:101DD0000E94FC6E4B015C01C090EE03D090EF03BB
:101DE000E090F003F090F1032DEC3CEC4CE45FE369
:101DF00060914F047091500480915104909152046D
:101E00000E94FC6E2B013C012DEC3CEC4CE45EE3AB
:101E1000C701B6010E94FC6E9B01AC01C301B20177
:101E20000E941F6C60934F04709350048093510480
:101E30009093520480912904882361F1C501B40173
:101E40000E94516D695F7F4F6F30710518F520E07A
:101E500030E0A901C701B6010E94E56C81111AC0EA
:101E60001092290410924F041092500410925104C1
:101E70001092520480914B0490914C04A0914D0417
:101E8000B0914E048093F6039093F703A093F80368
:101E9000B093F90320914F043091500440915104C4
:101EA00050915204C501B4010E941E6C6B017C016B
:101EB0002091F6033091F7034091F8035091F90314
:101EC0000E941F6C8B01D82FC92F8091290420E01C
:101ED00030E84BEB54ECB801882309F471C08D2F26
:101EE0009C2F0E94E56C87FD10C020E030E84BEB92
:101EF00054E4B8018D2F9C2F0E94AC6E18164CF440
:101F000000E010E8DBEBC4E404C000E010E8DBEB29
:101F1000C4ECC801AD2FBC2F8093F6039093F70358
:101F2000A093F803B093F9032091E2033091E30307
:101F30004091E4035091E503C701B6010E94FC6E95
:101F40004B015C012091E6033091E7034091E803E7
:101F50005091E903B8018D2F9C2F0E94FC6E9B01CC
:101F6000AC01C501B4010E941F6C8B01D82FC92F91
:101F700020E030E040E751EC0E94E56C87FD10C0A6
:101F800020E030E040E751E4B8018D2F9C2F0E9403
:101F9000AC6E18164CF400E010E0D0E7C1E404C0C9
:101FA00000E010E0D0E7C1ECA8016D2F7C2F40933A
:101FB000F2035093F3036093F4037093F50398C016
:101FC0008D2F9C2F0E94E56C87FD10C020E030E82B
:101FD0004BEB54E4B8018D2F9C2F0E94AC6E181669
:101FE0004CF400E010E8DBEBC4E404C000E010E8CF
:101FF000DBEBC4ECC801AD2FBC2F8093F6039093AC
:10200000F703A093F803B093F9032091E203309112
:10201000E3034091E4035091E503C501B4010E943C
:10202000FC6E6B017C012091E6033091E703409147
:10203000E8035091E903B8018D2F9C2F0E94FC6E9C
:102040009B01AC01C701B6010E941F6C6B017C01B2
:1020500020E030E040E751EC0E94E56C87FD0FC0C6
:1020600020E030E040E751E4B601C7010E94AC6EC9
:10207000181654F4C12CD12C90E781E407C0C12C70
:10208000D12C90E781EC02C09E2D8F2DA601692FE7
:10209000782F4093F2035093F3036093F40370930B
:1020A000F5032DEC3CEC4CE45FE360914B04709144
:1020B0004C0480914D0490914E040E94FC6E4B01A3
:1020C0005C012DEC3CEC4CE45EE3B8018D2F9C2FC1
:1020D0000E94FC6E9B01AC01C501B4010E941F6C03
:1020E00060934B0470934C0480934D0490934E0482
:1020F0002091F2033091F3034091F4035091F503E2
:1021000060910B0270910C0280910D0290910E0271
:102110000E941E6C60930E0470930F048093100451
:1021200090931104DF91CF911F910F91FF90EF9049
:10213000DF90CF90BF90AF909F908F907F906F90E7
:102140005F904F90089580912A04811111C086E11B
:1021500097E00E94A4310E94516D9B0177FF04C05B
:1021600022273327261B370B253031050CF477C087
:1021700080912A04882309F47CC086E197E00E94BC
:10218000A4310E94516D9B0177FF04C022273327A1
:10219000261B370B213231050CF46BC010929D03C6
:1021A00010929C0360E070E083E695E00E947A293B
:1021B00060E070E083EE94E00E947A291092F603CA
:1021C0001092F7031092F8031092F90380910B021A
:1021D00090910C02A0910D02B0910E0280930E041A
:1021E00090930F04A0931004B09311041092EE0387
:1021F0001092EF031092F0031092F1031092CE03AD
:102200001092CF031092D0031092D10340E050E01F
:10221000BA0183E695E00E943E2940E050E0BA0111
:1022200083EE94E00E943E291092F6031092F70389
:102230001092F8031092F90310922A0410924F049E
:1022400010925004109251041092520410925304B0
:1022500010925404109255041092560408958091DF
:102260009C0390919D03019690939D0380939C0302
:102270007FCF80919C0390919D0345970CF44CC0B7
:1022800010929D0310929C031092F6031092F70394
:102290001092F8031092F90360E070E083E695E095
:1022A0000E947A2960E070E083EE94E00E947A292F
:1022B00080910B0290910C02A0910D02B0910E0240
:1022C00080930E0490930F04A0931004B093110414
:1022D00040E050E0BA0183E695E00E943E2940E0EC
:1022E00050E0BA0183EE94E00E943E290E944064CF
:1022F00060933F04709340048093410490934204A0
:1023000060933B0470933C0480933D0490933E049F
:1023100081E080932A0408950895CF92DF92EF928E
:10232000FF9211DF80912A04882309F472C00E9471
:102330004064C0903F04D0904004E0904104F0908D
:1023400042046C197D098E099F096B307105810566
:10235000910558F000DB0E94406460933F04709345
:10236000400480934104909342040E944064C090D2
:102370003B04D0903C04E0903D04F0903E046C1986
:102380007D098E099F09653671058105910508F45F
:1023900050C0FADC2DEC3CEC4CE45FE3609153045C
:1023A0007091540480915504909156040E94FC6EE3
:1023B0006B017C012DEC3CEC4CE45EE36091CE03C0
:1023C0007091CF038091D0039091D1030E94FC6E55
:1023D0009B01AC01C701B6010E941F6C60935304BE
:1023E0007093540480935504909356046093D203E1
:1023F0007093D3038093D4039093D5030E944064D9
:1024000060933B0470933C0480933D0490933E049E
:1024100010C060E070E083E695E00E947A2960E0F9
:1024200070E083EE94E0FF90EF90DF90CF900C94FB
:102430007A29FF90EF90DF90CF900895CF93DF93AC
:1024400080919C0790919D07892B79F48CE790E00F
:102450000E94996AEC0168E00E94983BD0939D0726
:10246000C0939C07CE010E94AD3B80919C07909148
:102470009D070E94DC3B80919C0790919D070E94E4
:10248000D73B80939A04843409F48DC090919D04C5
:10249000933009F0A7C0893109F447C008F58930A5
:1024A00009F447C078F4873009F447C0883009F050
:1024B00095C080910F0290911002880F991F880F8C
:1024C000991F66C0863109F489C0883109F45AC061
:1024D0008C3009F083C080910F029091100258C097
:1024E0008A3479F168F48034E1F0823481F18C31FE
:1024F00009F074C020910F023091100245E032C003
:102500008A3559F18E35A1F1823509F067C0809185
:102510000F029091100263E0880F991F6A95E1F70E
:1025200037C0DF91CF910C943F05DF91CF910C9490
:102530005205DF91CF910C94B405DF91CF910C94AB
:102540009B0520910F023091100249E00BC02091B1
:102550000F023091100247E005C020910F02309128
:10256000100246E0429FC001439F900D112410C00D
:1025700020910F0230911002C901880F991F820F1C
:10258000931F06C080910F0290911002880F991F2F
:102590002091110230911202820F931F9093140226
:1025A000809313021FC00E94F30580919C079091B5
:1025B0009D070E94BC3B882339F080919C07909135
:1025C0009D070E94DC3BF1CF80919D048F5F80933B
:1025D0009D04853039F410929D0404C0DF91CF91A1
:1025E0000C94F305DF91CF9108958DED94E00E9456
:1025F000CA4228E730E0309314022093130281305E
:1026000059F028F0823099F0833001F108950E944A
:102610003F058AE090E015C00E943F0580919F042D
:102620009091A004823091054CF101970AC00E945C
:102630003F0580919F049091A00484319105F4F4AA
:1026400001969093A00480939F04089580919F0425
:102650009091A0040A9711F40E94520580919F0462
:102660009091A0040A9714F40E94CD0580919F04D4
:102670009091A0040B9714F00C94E3050895CF9269
:10268000DF92EF92FF920F931F93CF93DF93CDB71B
:10269000DEB72A970FB6F894DEBF0FBECDBF65E058
:1026A00070E080E090E00E946F6426E040E052EC31
:1026B00061E070E08DE79BE00E940D6865E070E0EE
:1026C00080E090E00E946F6483E695E00E943429E8
:1026D00043E050E063E973E00E94FD6183EE94E023
:1026E0000E94342943E050E063EA73E00E94FD61F8
:1026F0006CE28FED97E00E94EC466DE270E083E1C2
:1027000096E00E942B2000E020E040E060E08FEDAA
:1027100097E00E9483468FED97E00E94484724E6A9
:1027200030E040E050E068EE73E083E196E00E9424
:10273000962083E196E00E94052168ED72E08DE726
:102740009BE00E94E76A62E274E08DE79BE00E94F2
:10275000EB6A2FE088E190E00FB6F894A89580939B
:1027600060000FBE2093600065E070E080E090E0C4
:102770000E946F6489E597E00E94943765E070E0FD
:1027800080E090E00E946F64A89586E197E00E9447
:10279000943765E070E080E090E00E946F6461E053
:1027A0008DE00E943E6661E0CE0101960E94F72610
:1027B0008AE0FE013196A9ECB4E001900D928A9571
:1027C000E1F762E0CE0101960E94F7268AE0FE0161
:1027D0003196A3EDB4E001900D928A95E1F789EC72
:1027E00094E00E94D62783ED94E00E94D627A89516
:1027F000A89540E050E0BA0189EC94E00E94E127FE
:1028000040E050E0BA0183ED94E00E94E12781E0CE
:10281000809380008AE08093810083E08093B00001
:1028200082E08093B10069E070E083E695E00E9469
:10283000102C69E070E083EE94E00E94102C67E2B7
:1028400070E083E695E00E94142C67E270E083EE6E
:1028500094E00E94142C7AE9C72E79E9D72EED2C4A
:102860007FE3F72E00E010E0980146E656E666EEBC
:102870007FE383E695E00E94F22B00E010E09801F0
:1028800046E656E666EE7FE383EE94E00E94F22B86
:10289000C12CD12C7601970186014CEE51E568E3FD
:1028A0007EE383E695E00E94D82B970186014CEEEB
:1028B00051E568E37EE383EE94E00E94D82B60E06C
:1028C00070E083E695E00E94242C60E070E083EEE7
:1028D00094E00E94242C10922C0410922B048091DE
:1028E0000B0290910C02A0910D02B0910E02809308
:1028F0000E0490930F04A0931004B093110480E091
:1029000090E0A8E8B1E48093020490930304A093BC
:102910000404B0930504C0920604D0920704E09228
:102920000804F09209048DEC9CECACE4BEEB8093BF
:102930000A0490930B04A0930C04B0930D048DEC47
:102940009CECACECBDEB8093E2039093E303A0938B
:10295000E403B093E5038FE692E1A3E0BCEB809340
:10296000E6039093E703A093E803B093E9030E9482
:10297000BB040E94406460933F04709340048093C2
:1029800041049093420460933B0470933C04809311
:102990003D0490933E046093370470933804809311
:1029A000390490933A040E94406460933304709316
:1029B000340480933504909336040E9440646093FD
:1029C0002F047093300480933104909332042A963C
:1029D0000FB6F894DEBF0FBECDBFDF91CF911F9130
:1029E0000F91FF90EF90DF90CF900895CF93DF93FA
:1029F000C9E0D8E0CE010E94045B239688E0CD3286
:102A0000D807C1F781E098E00E9414268EEE97E087
:102A10000E9458588FED97E00E942D4683ED97E075
:102A20000E940C1E8FEC97E00E943E458EE997E0D5
:102A30000E94403D48E660E089E597E00E948931C8
:102A400049E661E086E197E00E9489318FEE96E0E9
:102A50000E940F218BEE96E00E94C63CC7E1D6E0B3
:102A6000CE010E942A55E59686E0CB3ED807C1F7F5
:102A700083E196E00E9425208CE096E00E94A13A36
:102A800086E096E00E945F3180E096E00E9474311B
:102A90008AEF95E00E94E45883EE95E00E94751D50
:102AA00061E083E695E00E94D42962E083EE94E041
:102AB0000E94D42969E08DED94E00E94C94289EC1E
:102AC00094E00E94072783ED94E00E94072762EEBE
:102AD00072E082E294E0DF91CF910C94D96B82E2B4
:102AE00094E00E94726B8FED97E00C948B47682FF7
:102AF0008DE79BE00C94A9678FEFF9DF85E5F7CFB1
:102B00008FEFF5DF85E5F3DF0C94FF05CF93C82F3A
:102B100081E0EDDF8C2FCF91EACFEF92FF920F9300
:102B20001F93CF93DF937C01FC01C4810C2F15818F
:102B300084E0DDDF8C2FDBDFC0E0D0E0C017D10701
:102B40003CF4BE01C7010E941C6CD1DF2196F6CF78
:102B5000DF91CF911F910F91FF90EF900895FF9219
:102B60000F931F93CF93DF931F92CDB7DEB78B01E7
:102B7000F82E82E09983BBDFA8016F2D9981792F10
:102B80004093C1045093C2046093C3047093C4047F
:102B9000802FADDF8091C204AADF8091C304A7DF3C
:102BA0008091C4040F90DF91CF911F910F91FF90FE
:102BB0009ECF1F93CF93DF9300D0CDB7DEB7182FF2
:102BC00086E069837A839B8392DF69816093C10485
:102BD0007A817093C2041093C3049B819093C404C0
:102BE000862F85DF8091C20482DF8091C3047FDF5E
:102BF0008091C4040F900F900F90DF91CF911F919F
:102C000076CF1F93CF93DF931F92CDB7DEB7182FE8
:102C100083E099836CDF1093BF0499819093C00483
:102C2000812F65DF8091C0040F90DF91CF911F91BC
:102C30005ECFCF92DF92EF92FF920F931F93CF93CD
:102C4000DF93CDB7DEB727970FB6F894DEBF0FBE80
:102C5000CDBF10916904482F50E04134510508F070
:102C6000D6C3FA01EE58FF4F0C9411718091DD0725
:102C70009091DE07009751F00E945745811791F01F
:102C80008091DD079091DE070E949A6A8EE090E0C5
:102C90000E94996A7C01612F0E94EA58F092DE0737
:102CA000E092DD0760E971E08091DD079091DE0739
:102CB0000E9469596B017C011FDF80919E0417DF20
:102CC000C701B601A3C300916A048EEE97E00E948B
:102CD000574581137FC38EEE97E00E945A458013BB
:102CE00079C38EEE97E00E94765890C38FEC97E000
:102CF0000E945745811761F0612F8FEC97E00E9489
:102D0000BB458FEC97E00E94E14560E00E943E6683
:102D10008FEC97E00E94AB452BC08FEC97E00E94B0
:102D20005745811761F0612F8FEC97E00E94BB45FA
:102D30008FEC97E00E94E14560E00E943E668FECD8
:102D400097E00E94AB450E94500C60C300916A045A
:102D50008BEE96E00E945745811729F0612F8BEE8C
:102D600096E00E94BB45602F8BEE96E00E94C93C26
:102D7000BC01882777FD8095982F0E94846D46C3FB
:102D800080919C0790919D070097B9F04F960E9403
:102D90005745811709F1E0909C07F0909D07E114D9
:102DA000F10459F088E193E0F70191838083C70132
:102DB0000E94F406C7010E949A6A8CE790E00E9484
:102DC000996A7C01612F0E94983BF0929D07E092E6
:102DD0009C07C7010E94AD3B80919C0790919D0785
:102DE0000E94D73B682F80939A048FEF860F8E3F07
:102DF000E0F060E070E0CB0109C38FEC97E00E9447
:102E00005745811761F0612F8FEC97E00E94BB4519
:102E10008FEC97E00E94E14560E00E943E6660E032
:102E20008FEC97E00E946E45682F70E080E090E0A4
:102E30000E94826DEBC28FEC97E00E94574581178C
:102E400099F0612F8FEC97E00E94BB458FEC97E0E3
:102E50000E94DE4560E00E943E668FEC97E00E9493
:102E6000E14560E00E943E6660E08FEC97E00E94E2
:102E70005D45182F60E08FEC97E00E946E45612F52
:102E800070E0660F771F680F711D882777FD8095AA
:102E9000982F73CF00916A048FEC97E00E945745FA
:102EA00081139FC28FEC97E00E945A45801399C20C
:102EB0008FEC97E0013061F40E94DE4562E00E94F1
:102EC0003E6660E08FEC97E00E945D458027ACCFC6
:102ED0000E94E14562E00E943E6660E08FEC97E070
:102EE0000E946E4561E06827A0CF8FEE96E00E94B9
:102EF00057458117A9F0612F8FEE96E00E94BB45E0
:102F00008FEE96E00E94E145482F8FEE96E04F83CA
:102F10000E94DE454F81682F8FEE96E00E94FC24D0
:102F20008FEE96E00E94042571C200916A048CE045
:102F300096E00E945745811729F0612F8CE096E0BA
:102F40000E94BB458CE096E00E94A43A602F8CE082
:102F500096E00E94913B182FCFDD80919E04C7DD43
:102F6000812F19C186E096E00E9457458117A9F08C
:102F7000612F86E096E00E94BB4586E096E00E94C5
:102F8000DE45482F86E096E04F830E94E1454F8161
:102F9000682F86E096E00E94623186E096E00E940B
:102FA00072319DC180E096E00E9457458117A9F0DB
:102FB000612F80E096E00E94BB4580E096E00E9491
:102FC000DE45482F80E096E04F830E94E1454F8127
:102FD000682F80E096E00E94773180E096E00E94C2
:102FE00087317DC160916A04111102C289E597E0C1
:102FF0006F830E949F316F81883609F008C289E58E
:1030000097E002C262E274E0CE0101960E94036C76
:10301000CE01019682DDCE0101960E94726BF7C14E
:1030200060E0812F0E943E66812F0E94AC66A0CE98
:10303000E12FF0E0EE0FFF1FEB5EFD4F108160E02F
:10304000812F0E943E66812F0E94016591CE87E00C
:1030500090E00E9403067C0160E0812F0E943E66A2
:103060009701442737FD4095542F61E0812F0E943E
:10307000D466AEC100916A0461E0812F0E943E6671
:1030800060E0812F0E94776682E090E00E94946465
:1030900061E0812F0E9477668AE090E00E9494644C
:1030A00060E0812F0E94776660E0802F0E943E667C
:1030B00020E335E740E050E061E0802F0E94D466D5
:1030C0006B017C0165E070E080E090E00E946F643D
:1030D00013DD80919E040BDDC701B6014ECE6091D9
:1030E0005B0470915C0480915D0490915E048EC1DC
:1030F0008AEF95E00E945745811729F0612F8AEFEA
:1031000095E00E94BB458AEF95E00E94E75843C0D6
:1031100083EE95E00E945745811729F0612F83EED9
:1031200095E00E94BB4581E02091980490916A044B
:10313000291789F180E02FC0111169C190916A04AB
:1031400080916B04913059F4813019F483E695E055
:103150000DC0823009F05BC183E695E00FC092306C
:1031600009F055C1813029F483EE94E00E94692B67
:103170002FC1823009F04BC183EE94E00E94602998
:1031800045C1103719F40E94900C40C1113709F065
:103190003EC180919D04BADC3AC100916A048091DD
:1031A000C7049091C804009751F589EB90E00E9404
:1031B000996A7C01612F0E941A44F092C804E0923F
:1031C000C70440E855E260E070E0C7010E94E847AC
:1031D00063E070E08091C7049091C8040E9461444C
:1031E0006AE070E080E090E00E946F6463E070E06D
:1031F0008091C7049091C8040E94614443C04F96D7
:103200000E9457458117F1F1E090C704F090C8047F
:10321000E114F10459F080E093E0F7019183808399
:10322000C7010E94F406C7010E949A6A89EB90E0E8
:103230000E94996A7C01612F0E941A44F092C8048E
:10324000E092C70440E855E260E070E0C7010E94E8
:10325000E84763E070E08091C7049091C8040E9441
:1032600061446AE070E080E090E00E946F6463E097
:1032700070E08091C7049091C8040E94614410924C
:103280000A0203C081E080930A0280910A02882327
:1032900011F1013039F48091C7049091C8040E9463
:1032A0003A4414C0023039F48091C7049091C804A4
:1032B0000E9447440BC0033039F48091C7049091B9
:1032C000C8040E94544402C080E090E090939B03A5
:1032D00080939A0304C080919A0390919B0391DCA0
:1032E00096C000916A04D0906B048091C5049091BF
:1032F000C6040097B9F04F960E9457458017B9F160
:10330000E090C504F090C604E114F10459F080EF98
:1033100092E0F70191838083C7010E94F406C70100
:103320000E949A6A84E691E00E94996A7C01602F6B
:103330000E941A49F092C604E092C50440E052ECA3
:1033400061E070E0C7010E94E84765E070E080E05E
:1033500090E00E946F648091C5049091C6040E9421
:10336000D84B62E370E080E090E00E946F64193017
:1033700041F46D2D8091C5049091C6040E94745251
:1033800045C01A3041F46D2D8091C5049091C6045A
:103390000E94BE533BC01B3041F46D2D8091C5048B
:1033A0009091C6040E94675431C01C3041F46D2DC9
:1033B0008091C5049091C6040E941C5327C01D3003
:1033C00031F56D2D8091C5049091C6040E94CC51B9
:1033D000F0DB1DC0402F612F8EEE97E00E946358F6
:1033E00080CC402F612F8FEC97E00E94CB4560CDC1
:1033F000113069F486E197E06F830E949F316F81FD
:10340000893629F486E197E00E94B031A8DB27963F
:103410000FB6F894DEBF0FBECDBFDF91CF911F91E5
:103420000F91FF90EF90DF90CF900895CF92DF92B1
:10343000EF92FF920F931F93CF93DF931F92CDB71D
:10344000DEB710922E04809166049091670410916B
:10345000680480939E04923009F118F4913039F099
:10346000EEC09430F9F0953009F4DFC0E8C01130B7
:1034700041F0173131F0143221F089833DDB89812D
:1034800036DB812FD6DB0F90DF91CF911F910F910B
:10349000FF90EF90DF90CF900C94FF05812F0E945A
:1034A0002207C3C06DE270E083E196E0D4D500E06E
:1034B00020E040E060E08FED97E00E9483468FEDD2
:1034C00097E00E94484740E050E0BA0183E695E06B
:1034D0000E943E2940E050E0BA0183EE94E00E9451
:1034E0003E29C12CD12CE12CF12C00E010E020E28F
:1034F00031E440E050E0BA0183E695E00E947B2B86
:1035000000E010E020E231E440E050E0BA0183EE58
:1035100094E00E947B2B60E070E083E695E00E94DF
:103520007A2960E070E083EE94E00E947A2960E0FE
:1035300070E083E695E00E94242C60E070E083EE6A
:1035400094E00E94242C61E081E098E00E9424260F
:1035500060E070E081E098E00E94302662E081E067
:1035600098E00E94242660E070E081E098E00E94EC
:10357000302663E081E098E00E94242660E070E05D
:1035800081E098E00E94302664E081E098E00E94AB
:10359000242660E070E081E098E00E94302640E060
:1035A00050E0BA0189EC94E00E94E12740E050E04D
:1035B000BA0183ED94E00E94E12740E050E0BA01B7
:1035C00087E196E00E94BD5540E050E0BA018CE4EE
:1035D00096E00E94BD5540E050E0BA0181E896E0D7
:1035E0000E94BD5540E050E0BA0186EB96E00E9493
:1035F000BD5540E050E0BA0187E196E00E944D578A
:1036000040E050E0BA018CE496E00E944D5740E063
:1036100050E0BA0181E896E00E944D5740E050E04A
:10362000BA0186EB96E00E944D570F90DF91CF9143
:103630001F910F91FF90EF90DF90CF9061CA0F9094
:10364000DF91CF911F910F91FF90EF90DF90CF907E
:10365000089510922D048DE79BE00E9400671816D4
:1036600019064CF481E080932D048DE79BE00E94C5
:103670001967809397040895ECDF80912D048823C7
:1036800009F447C08091970490912E04853561F428
:1036900091110AC0809199048F3FE1F481E08093F9
:1036A0009C0480932E0416C080939904992391F072
:1036B000E0919C04E23019F480939B0407C0E3304E
:1036C00028F090919B04915090939B04F0E0ED5969
:1036D000FB4F808380919C048F5F843318F4809328
:1036E0009C0404C010929C0410922E0480912E041D
:1036F000882369F080919B04811109C080919C040A
:10370000843028F010922E0491DE10929C0481E007
:1037100008950895CF93DF938091DD079091DE07A0
:10372000892B61F48EE090E00E94996AEC016AE0D6
:103730000E94EA58D093DE07C093DD0786E990E047
:1037400090931402809313028091DD079091DE071D
:10375000009709F46BC060E971E00E9469590E940A
:10376000516D7093A6046093A5049B012551310906
:1037700023313105F8F46CE271E080E090E00E94C2
:103780000B6B7093A4046093A3046F3B71055CF012
:1037900080912B04811107C081E080932C04DF917C
:1037A000CF910C949B0581E080932B04DF91CF9106
:1037B0000C94B405615071096331710578F56CE2C0
:1037C00071E080E090E00E940B6B7093A404609322
:1037D000A3046F3B71058CF00E946505CCE2D1E03B
:1037E000A8954ADF811122C062E070E080E090E09D
:1037F0000E946F642197A1F719C00E948005CCE256
:10380000D1E0A89539DF811111C062E070E080E05D
:1038100090E00E946F642197A1F708C010922C04D9
:1038200010922B04DF91CF910C943F05DF91CF9143
:1038300008950F931F930E9440640E94826D20E0C0
:1038400030E04AE754E40E94E96C20915F04309133
:10385000600440916104509162040E941E6C609368
:103860005B0470935C0480935D0490935E0483EE2C
:1038700095E03DD1809398040E9440640091330408
:10388000109134042091350430913604601B710B83
:10389000820B930B693E73408105910598F00E945D
:1038A00040646093330470933404809335049093A0
:1038B00036046091280481E06827609328048DE035
:1038C0000E947766A89580919C0790919D07892B0F
:1038D00011F00E941E1287E196E00E9437588CE496
:1038E00096E00E94375881E896E00E94375886EBB0
:1038F00096E00E9437580E94900C83E695E00E9463
:10390000453183EE94E00E9445310E94406400916D
:103910002F04109130042091310430913204601B47
:10392000710B820B930B653F71408105910590F0FF
:103930000E94406460932F0470933004809331049C
:10394000909332048091C7049091C804009711F0BD
:103950000E94AB4411E07DDE80912D04882309F4A0
:1039600046C08091970490912E04853559F49111A9
:1039700009C0809199048F3FD9F410939C0410934F
:103980002E0416C080939904992391F0E0919C0431
:10399000E23019F480939B0407C0E33028F0909143
:1039A0009B04915090939B04F0E0ED59FB4F808372
:1039B00080919C048F5F843318F480939C0404C02E
:1039C00010929C0410922E0480912E04882319F2E8
:1039D00080919B048111BFCF80919C04843008F4B6
:1039E000BACF10922E0422DD10929C04B4CF8FEE39
:1039F00096E00E945745882321F08FEE96E00E94C2
:103A0000042586E197E00E94AA31609347047093F1
:103A100048048093490490934A0480919D04811145
:103A200028C00E944064009137041091380420910E
:103A3000390430913A04601B710B820B930B6B308D
:103A400071058105910508F44DC00E9440646093A2
:103A50003704709338048093390490933A0486E1D4
:103A600097E00E944F3489E597E01F910F910C94E5
:103A70001F32813079F460E070E083E695E00E94C7
:103A8000242C60E070E083EE94E00E94242C1F91CF
:103A90000F9140CE8230A1F486E197E00E944F342E
:103AA00060E070E083E695E00E94242C60E070E026
:103AB00083EE94E00E94242C1F910F910C948D11A1
:103AC000843081F460E070E083E695E00E94242C6D
:103AD00060E070E083EE94E00E94242C1F910F912F
:103AE0000C94F5121F910F9108950C943E45CF92BE
:103AF000DF92EF92FF920F931F93CF93DF93EC012E
:103B00000C891D890E944064CC80DD80EE80FF809E
:103B10009B01AC012C193D094E095F0969017A012D
:103B200039E0C316D104E104F104E8F16C837D832C
:103B30008E839F83CE010E94AB45488559856A8557
:103B40007B85452B462B472B49F4AC01662757FD57
:103B50006095762F488B598B6A8B7B8B4889598966
:103B60006A897B89841B950B97FF03C0919581958A
:103B70009109449764F44C855D856E857F854F5F20
:103B80005F4F6F4F7F4F4C875D876E877F8748857C
:103B900059856A857B854F5F5F4F6F4F7F4F4887A1
:103BA00059876A877B8788859985AA85BB8505970C
:103BB000A105B105D1F4188619861A861B868C8555
:103BC0009D85AE85BF850397A105B10540F0888925
:103BD0009989AA89BB898C019D8B8C8B02C00C8929
:103BE0001D891C861D861E861F86C80164E670E03E
:103BF0000E94C0706830710528F4FB01E45FFC4F3F
:103C0000808101C080E0DF91CF911F910F91FF90E3
:103C1000EF90DF90CF9008950C943E450F931F9343
:103C2000CF93DF93EC01062F18E060E088850E94B7
:103C3000776600FF02C061E001C060E089850E94F4
:103C40007766069561E088850E947766115069F76E
:103C500060E088850E94776661E089850E947766CA
:103C600061E088850E94776660E089850E943E66F3
:103C700018EC89850E94AC66892B59F01150C9F760
:103C800061E089850E943E6660E089850E947766D2
:103C9000EFCF61E08985DF91CF911F910F910C9457
:103CA0003E66CF93DF93EC0161E088850E947766E2
:103CB00061E089850E94776660E089850E94776669
:103CC00060E08885DF91CF910C947766CF93DF9386
:103CD000EC0160E088850E94776660E089850E943B
:103CE000776661E088850E94776661E08985DF916B
:103CF000CF910C947766CF92DF92FF920F931F9330
:103D0000CF93DF931F92CDB7DEB76C01F62E798388
:103D1000C8DF60E4C60182DFC601D8DFC601C1DFAB
:103D2000F6016581C6017ADF0F2D7981172F84E0B6
:103D3000F82EF80161918F01C60170DFFA94C9F77E
:103D4000C601C4DFC601ADDFF6016681C60166DFCC
:103D5000C6010F90DF91CF911F910F91FF90DF90DF
:103D6000CF90B4CF4F925F926F927F928F929F923B
:103D7000AF92BF92CF92DF92EF92FF920F931F9379
:103D8000CF93DF9300D01F92CDB7DEB76A017B01DE
:103D9000890137FD48C0B9016F5F7F4F882777FDE4
:103DA0008095982F0E94846D9B01AC0160E070E0CB
:103DB00080E291E40E945F6F4B015C019B01AC01CA
:103DC000C701B6010E94E96C0E94BF6D2B013C0146
:103DD000B801882777FD8095982F0E94846D9B01FC
:103DE000AC0160E070E080E291E40E945F6F698363
:103DF0007A838B839C83A5019401C301B2010E9445
:103E0000FC6E9B01AC01C701B6010E941E6C2981AA
:103E10003A814B815C810E94E96C0E94BF6D0E94D7
:103E2000516DCB011FC088249924821A930AA12CBA
:103E3000B12C20E030E040E251E4C701B6010E941D
:103E4000FC6E6B017C018FEFA81AB80AA814B904A4
:103E500084F3C701B6010E94516DCB016AE070E0A6
:103E60000E94C0700F900F900F900F90DF91CF9134
:103E70001F910F91FF90EF90DF90CF90BF90AF9088
:103E80009F908F907F906F905F904F900895DB018F
:103E900080E090E22C91223208F09C93EC91F0E0CB
:103EA000E459FD4FE491ED938F5F843099F70895C5
:103EB000EF92FF920F931F93CF93DF9300D01F9247
:103EC000CDB7DEB78C01DB01FE013196CE01059640
:103ED0007F012D912193E817F907D9F7B701C801A0
:103EE000D6DFB701C80107DF0F900F900F900F903A
:103EF000DF91CF911F910F91FF90EF900895CF9395
:103F0000DF9300D01F92CDB7DEB720E229832A834A
:103F10002B832C83BE016F5F7F4FCADF0F900F9002
:103F20000F900F90DF91CF910895CF93DF93EC0125
:103F30006A83E62FF0E0EE0FFF1FED5AFD4F8181FF
:103F40008983908198838887998761E00E943E6683
:103F500061E089850E943E6680E48C8380EC8D83DD
:103F60008AE88E83CE01DF91CF91C9CF8F929F9245
:103F7000AF92BF92CF92DF92EF92FF920F931F9377
:103F8000CF93DF9300D01F92CDB7DEB75C016A01FB
:103F90007B0119821A821B821C8220E030E0A90179
:103FA000C701B6010E94E56C87FF09C0F7FAF094DB
:103FB000F7F8F09481E289839924939401C0912CBD
:103FC00003E010E0812C9801B701A601C501CADE0B
:103FD000181619062CF0002319F08820B9F00CC02F
:103FE00001110AC0E1E0F0E0EC0FFD1FE90DF11D49
:103FF00020E1280F208307C0E1E0F0E0EC0FFD1F77
:10400000E90DF11D808393948824839483E08915BE
:1040100030F0015011090C3F8FEF1807A1F6BE01D7
:104020006F5F7F4FC50144DF0F900F900F900F908F
:10403000DF91CF911F910F91FF90EF90DF90CF9084
:10404000BF90AF909F908F9008950E943E4588E06A
:1040500080932D08089560932D0808954F925F92E4
:104060006F927F928F929F92AF92BF92CF92DF9288
:10407000EF92FF920F931F93CF93DF93762E6801F9
:10408000790160932D089A0140E050E060E472E409
:104090008FE090E00E94F570E901590137FF03C0FD
:1040A0008FEFA81AB80A85011595079561E0872D4D
:1040B0000E943E66A8EEB3E0A70196010E94267119
:1040C0002B013C01C12CD12C76014E01AA2497FC76
:1040D000A094BA2CC414D504E604F704B0F461E04B
:1040E00080912D080E947766C8010E94946460E068
:1040F00080912D080E947766C8010E949464A8955B
:10410000C80CD91CEA1CFB1CE5CFDF91CF911F9195
:104110000F91FF90EF90DF90CF90BF90AF909F9066
:104120008F907F906F905F904F9008954F925F9225
:104130006F927F928F929F92AF92BF92CF92DF92B7
:10414000EF92FF920F931F93CF93DF9369017A0150
:104150009B0140E050E060E472E48FE090E00E9458
:10416000F570E901890137FF02C00F5F1F4F1595F8
:10417000079561E080912D080E943E66A8EEB3E0AD
:10418000A70196010E9426714B015C01C12CD12C24
:1041900076012E01662457FC6094762CC814D9044D
:1041A000EA04FB04B0F461E080912D080E94776678
:1041B000C8010E94946460E080912D080E94776697
:1041C000C8010E949464A895C40CD51CE61CF71C79
:1041D000E5CFDF91CF911F910F91FF90EF90DF908E
:1041E000CF90BF90AF909F908F907F906F905F9097
:1041F0004F900895862F60932D0861E00E943E66DF
:1042000060E080912D080C94776661E080912D0824
:104210000E943E6660E080912D080C947766CF93F3
:10422000DF93EC0160E00E9447458EE18B871C82A2
:10423000DF91CF910895AF92BF92CF92DF92EF922C
:10424000FF920F931F93CF93DF93CDB7DEB76A979B
:104250000FB6F894DEBF0FBECDBF8C01CE01019624
:104260007C01C12CD12C5C01C6010E94E573F701D1
:1042700081937F01FFEFCF1ADF0A8AE1C816D104CC
:1042800099F72D813E814F81588569817A818B8193
:104290009C810E941F6C29853A854B855C850E9414
:1042A0001F6C2D853E854F8558890E941F6C29897A
:1042B0003A894B895C890E941F6C2D893E894F8900
:1042C000588D0E941F6C6B017C01698D70E080E04D
:1042D00090E00E94846D9B01AC01C701B6010E9471
:1042E0001F6C20E030E04AE253E40E941F6C0E9401
:1042F000566D8A8D68130CC08AE1F501D8011D96B0
:1043000001900D928A95E1F781E0F801848302C063
:10431000F80114826A960FB6F894DEBF0FBECDBFC7
:10432000DF91CF911F910F91FF90EF90DF90CF9091
:10433000BF90AF900895CF92DF92EF92FF920F93CC
:104340001F93CF93DF938C01EB012C813D814E8134
:104350005F81688179818A819B810E941F6C288599
:1043600039854A855B850E941F6C2C853D854E856D
:104370005F850E941F6C288939894A895B890E9460
:104380001F6C2C893D894E895F890E941F6C6B01CF
:104390007C01688D70E080E090E00E94846D9B015C
:1043A000AC01C701B6010E941F6C20E030E04AE278
:1043B00053E40E941F6C0E94566D698FE12CF12C12
:1043C0006991C7010E94ED738FEFE81AF80AEAE1DC
:1043D000EE16F104A9F781E0F8018483DF91CF9113
:1043E0001F910F91FF90EF90DF90CF900895EF9283
:1043F000FF921F93CF93DF931F92CDB7DEB7162F97
:104400007A01FC01638580E69AE029830E94265D9B
:10441000612F80E69AE00E94D15C2981813091F47D
:10442000422F50E0B70180E69AE00E94A55C61E06F
:1044300080E69AE00F90DF91CF911F91FF90EF906F
:104440000C94305D8FEF0F90DF91CF911F91FF9013
:10445000EF900895CF93DF931F92CDB7DEB74983D6
:1044600021E0AE014F5F5F4FC2DF0F90DF91CF9130
:104470000895EF92FF920F931F93CF93DF93EC0178
:10448000F62E8A01E22E6B8580E69AE00E94265D78
:104490006F2D80E69AE00E94D15C813001F560E0EA
:1044A00080E69AE00E94305D81112EC081E090E0AC
:1044B0000E94946421E04E2D6B8580E69AE00E9474
:1044C000185DE80100E010E0F12C80E69AE00E941F
:1044D0007A5C892B31F00E151F0574F002C08FEF46
:1044E00013C081E090E00E94946481E00E151F05E6
:1044F00009F480E0819508C00F5F1F4F80E69AE0C5
:104500000E94825C8993E1CFDF91CF911F910F913F
:10451000FF90EF900895CF93DF93EC01AC014B5FD8
:104520005F4F23E06AE0A5DF81110AC08D818834E6
:1045300039F48E81843321F481E09F81933309F033
:1045400080E0DF91CF910895CF92DF92EF92FF92BA
:104550000F931F93CF93DF93EC016B018A017901D5
:104560003BD0AE014B5F5F4F26E063E0CE0181DFC1
:10457000882321F0992787FD909525C08C8581306F
:1045800029F441E062E070E0CE0164DF8D8190E0CB
:10459000982F88272E81822BF6019183808389852D
:1045A00090E0982F88272A85822BF80191838083B9
:1045B0008F8190E0982F88272885822BF70191839F
:1045C000808380E090E0DF91CF911F910F91FF9069
:1045D000EF90DF90CF9008952F923F924F925F928D
:1045E0006F927F928F929F92AF92BF92CF92DF9203
:1045F000EF92FF920F931F93CF93DF93CDB7DEB768
:104600006C970FB6F894DEBF0FBECDBF8C0162E091
:104610000E945D458111B5C16AE070E080E090E0E4
:104620000E946F6462E0C8010E945D458111A9C1CA
:10463000C80171DF882309F4A4C10E9440646B01A2
:104640007C01712CBB24B39462E0C8010E945D45DB
:10465000811116C00E9440646C197D098E099F0962
:10466000693C71058105910578F3A8950E94406425
:104670006B017C017B24672DC8010E948F45E4CF2C
:1046800064E670E080E090E00E946F640E94406405
:104690004B015C012FEF3FE7388B2F8740E050E85C
:1046A0005E874D878FEF9FE79C878B87E0E0F0E880
:1046B000FA87E98738872F83212C50E8352E662426
:1046C00063940E9440646C197D098E099F09693CBE
:1046D00071058105910550F0A8950E9440646B0119
:1046E0007C017624672DC8010E948F450E9440649A
:1046F000681979098A099B096B3071058105910553
:10470000E0F1A8959E012F5F3F4FAE014D5F5F4FD7
:10471000BE016B5F7F4FC80117DF8D819E814F8186
:104720005885841795072CF02816390624F41C01A7
:1047300002C098878F838B819C81EB85FC858E17C7
:104740009F0744F029853A85281739072CF49A8762
:10475000898702C09C878B8789819A814F85588978
:104760008417950744F0ED85FE85E817F9072CF4CA
:104770009E878D8702C0988B8F8762E0C8010E9458
:104780005D4581119ECF60E0C8010E948F45B10157
:10479000882777FD8095982F0E94846D6B017C019E
:1047A0002F813885B901882777FD8095982F0E9441
:1047B000846D698B7A8B8B8B9C8B9B01AC01C701C1
:1047C000B6010E941F6C905820E030E040E05FE3AB
:1047D0000E94FC6EF801658776878787908B298514
:1047E0003A85B901882777FD8095982F0E94846DBE
:1047F0002B013C014B855C85BA01882777FD8095AC
:10480000982F0E94846D6D8B7E8B8F8B988F9B0170
:10481000AC01C301B2010E941F6C905820E030E04F
:1048200040E05FE30E94FC6EF801618B728B838B2A
:10483000948B2D853E85B901882777FD8095982F2B
:104840000E94846D4B015C014F855889BA0188270D
:1048500077FD8095982F0E94846D698F7A8F8B8F5A
:104860009C8F9B01AC01C501B4010E941F6C905844
:1048700020E030E040E05FE30E94FC6EF801658BD1
:10488000768B878B908F80E090E0A0E8BFE3818FEC
:10489000928FA38FB48F29893A894B895C89C7018C
:1048A000B6010E941E6C6B017C012D893E894F89E7
:1048B000588DC301B2010E941E6CA70196010E948F
:1048C000E96CF801658F768F878F90A3298D3A8DDB
:1048D0004B8D5C8DC501B4010E941E6CA701960131
:1048E0000E94E96CF80161A372A383A394A32F81B2
:1048F0003885221A330A37FE03C0319421943108D7
:1049000089859A854B855C85841B950B97FF03C031
:104910009195819591092D853E85EF85F8892E1B0E
:104920003F0B37FF03C0319521953109821593055F
:104930002CF02215330514F081E009C02816390641
:104940002CF02817390714F082E001C083E0F80149
:1049500085A3B801635F7F4FC801EDDC61E0C8014A
:104960000E948F4562E0C8010E945D45811102C02E
:10497000A895F8CFA89564E670E080E090E00E94EA
:104980006F646C960FB6F894DEBF0FBECDBFDF919B
:10499000CF911F910F91FF90EF90DF90CF90BF903C
:1049A000AF909F908F907F906F905F904F903F90CF
:1049B0002F900895CF93DF93EC0180E69AE00E9458
:1049C0000F5D61E0CE010E948F4540E760E070E03E
:1049D000CE0140DD40E261E070E0CE013BDD81E0F0
:1049E0008C8741E062E070E0CE0134DDCE0123DC53
:1049F000CE01DF91CF91F0CD60932F0840932E0828
:104A0000FC0160834183D6CF2F923F924F925F92F9
:104A10006F927F928F929F92AF92BF92CF92DF92CE
:104A2000EF92FF920F931F93CF93DF93CDB7DEB733
:104A300062970FB6F894DEBF0FBECDBF8C01CCDD00
:104A40009E012F5F3F4FAE014D5F5F4FBE016B5F19
:104A50007F4FC80179DD882349F0682F772767FDEC
:104A60007095872F972F0E94846DC5C0F8018481AF
:104A70002D803E802B813C8138872F83882309F449
:104A800078C04584568467847088818C928CA38C0E
:104A9000B48CB901882777FD8095982F0E94846D8A
:104AA000F80121893289438954890E941F6CF801D9
:104AB000258D368D478D50A10E94FC6E0E94516D50
:104AC0006F83788789879A8769817A81882777FDBC
:104AD0008095982F0E94846DF80125893689478931
:104AE000508D0E941F6CF80121A132A143A154A155
:104AF0000E94FC6E0E94516D6B877C878D879E871C
:104B0000F80115A1113041F42B853C85B9018827A6
:104B100077FD8095982F32C0B101882777FD809569
:104B2000982F0E94846DA30192010E941F6CA50121
:104B300094010E94FC6E0E94516D4B015C01123089
:104B400089F42B853C85B901882777FD8095982FBE
:104B50000E94846D9B01AC01B401882777FD80958C
:104B6000982F17C0133019F5882777FD8095982F57
:104B700005C0B101882777FD8095982F0E94846D2C
:104B80009B01AC01EF81F885BF01882777FD8095F7
:104B9000982F2F87388B498B5A8B0E94846D2F85D5
:104BA000388949895A890E94926C6B017C0120E006
:104BB00030E0A901C701B6010E94E56C87FF0DC076
:104BC0002BED3FE049EC50E4C701B6010E941F6C99
:104BD00020E030E044E353E406C020E030E044E36A
:104BE00053E4C701B6010E94FC6E2BED3FE049E49F
:104BF00050E40E94E96C62960FB6F894DEBF0FBED7
:104C0000CDBFDF91CF911F910F91FF90EF90DF907B
:104C1000CF90BF90AF909F908F907F906F905F905C
:104C20004F903F902F90089560E00E94474581E0AB
:104C3000809380008BE08093810083E08093B000BC
:104C400084E08093B1000895CF93DF93EC010E943C
:104C5000BB4584EF91E09F838E83DF91CF910895D0
:104C60000F931F93CF93DF938C016F3F710519F062
:104C700014F06FEF70E0EB0161308FEF780714F400
:104C8000C1E0DFEFF801868197818C179D0709F15C
:104C9000D783C683D7FD0AC061E0C8010E948F4553
:104CA00085E090E00E949464BE010CC060E0C80101
:104CB0000E948F4585E090E00E94946466277727E4
:104CC0006C1B7D0BC801DF91CF911F910F910C944C
:104CD000B745DF91CF911F910F9108954F925F9249
:104CE0006F927F928F929F92AF92BF92CF92DF92FC
:104CF000EF92FF920F931F93CF93DF9300D01F92F9
:104D0000CDB7DEB7FC01C982DA82EB82FC8295EA7C
:104D100090832183C2828A8183838B8184838C8167
:104D2000858346015701CF0106963801C12CD12C4D
:104D30007601C814D904EA04FB0461F0D3012D9173
:104D40003D01DC012D93CD01BFEFCB1ADB0AEB0A4D
:104D5000FB0AEFCF2401350126E0420E511C611CF5
:104D6000711CD801C12CD12C760180E0C814D90463
:104D7000EA04FB0441F09D9189279FEFC91AD90AE3
:104D8000E90AF90AF3CFDF01A40DB51D8C93970151
:104D90008601085F1F4F2F4F3F4FA7E0CA0ED11C5F
:104DA000E11CF11CEC0DFD1D8AE5808340175107C5
:104DB0006207730728F460E070E080E090E002C0D2
:104DC000B801C9010F900F900F900F90DF91CF9114
:104DD0001F910F91FF90EF90DF90CF90BF90AF9019
:104DE0009F908F907F906F905F904F9008951F934A
:104DF000CF93DF93EC01162F60E00E9447451150DE
:104E00001C8389E08D83DF91CF911F910895CF930B
:104E1000DF93EC0160E00E9447451C8289E08D83AE
:104E2000DF91CF91089580E398E00C94E63780E31A
:104E300098E00C940F38AF92BF92CF92DF92EF922E
:104E4000FF920F931F93CF93DF93EC016B017A01D5
:104E500059016D8180E69AE00E94265DA501B601A8
:104E600080E69AE00E94A55C80E69AE00E94425D9E
:104E700082E090E00E9494646D8170E0A80180E679
:104E80009AE00E94245D82E090E00E949464C0E079
:104E900080E69AE00E947A5C892B51F080E69AE0E5
:104EA0000E94825CF701EC0FF11D8083CF5FF0CF91
:104EB000DF91CF911F910F91FF90EF90DF90CF90F6
:104EC000BF90AF9008956F927F928F929F92AF9212
:104ED000BF92CF92DF92EF92FF920F931F93CF93E7
:104EE000DF93CDB7DEB768970FB6F894DEBF0FBE7D
:104EF000CDBF3C018AE04E012BE0820E911CF401F3
:104F0000282F11922A95E9F7FE0131965F0111923F
:104F10008A95E9F7F30184818F8B87E0888F82E09F
:104F2000C82ED12CE12CF12C8E01095E1F4F21E0FF
:104F30004AE050E060E070E0C401D0DE0AE010E03A
:104F40002AE030E0A501B401C30175DF2AE030E0BA
:104F500040E050E0B50180E398E00E9448381E8AA6
:104F60001D8A22E030E040E050E0BE016B5E7F4FE2
:104F700080E398E00E94573A81E09E89911101C038
:104F800080E068960FB6F894DEBF0FBECDBFDF910C
:104F9000CF911F910F91FF90EF90DF90CF90BF9036
:104FA000AF909F908F907F906F900895CF93DF93F5
:104FB000EC0180E69AE00E940F5DCE01DF91CF9177
:104FC00082CF6F927F928F929F92AF92BF92CF9239
:104FD000DF92EF92FF920F931F93CF93DF93CDB7A2
:104FE000DEB76E970FB6F894DEBF0FBECDBF3C01A3
:104FF0006A017B0120E030E048E453E4C701B601D8
:105000000E94AC6E18168CF020E030E048E453ECBF
:10501000C701B6010E94E56C87FF0DC0C12CD12CE1
:1050200058E4E52E53ECF52E06C0C12CD12C68E4D3
:10503000E62E63E4F62ECE0101964C018EE0F401DB
:1050400011928A95E9F75E01FFE0AF0EB11C8AE08C
:10505000F50111928A95E9F78E01075E1F4F86E0F0
:10506000F80111928A95E9F7F3018481898F85E02F
:105070008A8FCB8EDC8EED8EFE8E46E0C42ED12C38
:10508000E12CF12C21E04EE050E060E070E0C40142
:1050900025DE0AE010E02EE030E0A501B401C301F6
:1050A000CADE2AE030E040E050E0B50180E398E05D
:1050B0000E94483880E398E00E94EB3880E06E96CA
:1050C0000FB6F894DEBF0FBECDBFDF91CF911F9119
:1050D0000F91FF90EF90DF90CF90BF90AF909F9097
:1050E0008F907F906F9008952F923F924F925F9292
:1050F0006F927F928F929F92AF92BF92CF92DF92E8
:10510000EF92FF920F931F93CF93DF93CDB7DEB74C
:10511000A8970FB6F894DEBF0FBECDBF4C011A01A1
:105120002B016801790120E030E048E453E4C70135
:10513000B6010E94AC6E18168CF020E030E048E416
:1051400053ECC701B6010E94E56C87FF0DC0C12C6E
:10515000D12CE8E4EE2EE3ECFE2E06C0C12CD12CBF
:10516000F8E4EF2EF3E4FF2E20E030E0A901C201C5
:10517000B1010E94E56C811105C0B701A601C4010F
:1051800020DF59C0CE0101963C0182E1F30111926A
:105190008A95E9F78AE05E01FDE1AF0EB11CF501E9
:1051A000982F11929A95E9F78E010D5E1F4FF80125
:1051B00011928A95E9F7F40184818B8B81E18C8BC4
:1051C0002D8A3E8A4F8A588EC98EDA8EEB8EFC8EDF
:1051D0007AE0C72ED12CE12CF12C21E042E150E005
:1051E00060E070E0C3017ADD0AE010E022E130E027
:1051F000A501B301C4011FDE2AE030E040E050E029
:10520000B50180E398E00E94483880E398E00E946E
:10521000EB3818A61FA222E030E040E050E0BE01CB
:10522000695D7F4F80E398E00E94573A81E098A53E
:10523000911101C080E0A8960FB6F894DEBF0FBEB2
:10524000CDBFDF91CF911F910F91FF90EF90DF9035
:10525000CF90BF90AF909F908F907F906F905F9016
:105260004F903F902F9008958E589F4FFC01808162
:10527000089582599F4FFC0180810895FC0146A347
:1052800057A360A771A70895FC0146A157A160A587
:1052900071A54F5F5F4F6F4F7F4F46A357A360A726
:1052A00071A70895FC0146A157A160A571A54150C1
:1052B00051096109710946A357A360A771A7089511
:1052C000FC016285738584859585089522E0FC0143
:1052D00020839B016F3F710519F014F02FEF30E030
:1052E0002130FFEF3F0714F421E03FEFFC0137834B
:1052F00026830895EF92FF920F931F93CF93DF932E
:10530000FC016F3F710519F014F06FEF70E0EB01D5
:1053100061308FEF780714F4C1E0DFEF808591856D
:105320008C179D07D1F1D187C087D583C483DF0156
:10533000A059BF4FCF018F589F4F7C018F0101595A
:105340001F4FD7FF12C060E08C910E94776685E006
:1053500090E00E94946461E0F70180810E9477668A
:10536000662777276C1B7D0B0EC061E08C910E9435
:10537000776685E090E00E94946460E0F7018081A8
:105380000E947766BE01F8018081DF91CF911F9165
:105390000F91FF90EF900C942665DF91CF911F91B4
:1053A0000F91FF90EF9008959F92AF92BF92CF928E
:1053B000DF92EF92FF920F931F93CF93DF93EC0155
:1053C000DC01AD58BF4F6C9385E0982E969EF0019E
:1053D0001124EB5CFD4F80818E0103591F4FD801D2
:1053E0008C935E01BEE6AB0EB11C9181D5019C93FE
:1053F000119692819C936E01B0E7CB0ED11C9381E4
:10540000D6019C937E01B1E7EB0EF11C9481F7016C
:10541000908362E00E943E6662E0D5018C910E941A
:105420003E6661E0F60180810E943E6661E0D70140
:105430008C910E943E661EA21FA218A619A684EF98
:1054400091E099878887188289E090E09B838A831E
:1054500048E651E16DE172E44E8B5F8B688F798F86
:10546000F8018081823119F4359690821AC0833117
:1054700011F484E003C0843131F483E0FE01EE587E
:10548000FF4F80830EC0853111F482E0F7CF833067
:1054900011F481E0F3CF823021F4FE01EE58FF4F8A
:1054A000108260E070E0CE0125DF1EA21FA218A6C8
:1054B00019A60E944064CA58DF4F688379838A83A3
:1054C0009B83DF91CF911F910F91FF90EF90DF9021
:1054D000CF90BF90AF909F9008952F923F924F92A0
:1054E0005F926F927F928F929F92AF92BF92CF9274
:1054F000DF92EF92FF920F931F93CF93DF9300D031
:1055000000D0CDB7DEB79E838D830E9440640D81AD
:105510001E810A581F4FF801C080D180E280F380BD
:105520006C197D098E099F09653171058105910509
:1055300008F465C00E94406469837A838B839C83EE
:10554000ED81FE81C6A0D7A0E0A4F1A482A193A121
:10555000A4A1B5A12280338046885788608C718CC5
:10556000A7019601281B390B4A0B5B0BCA01B90135
:105570000E94846D4B015C01F801808191816981F9
:105580007A81681B790B80E090E00E94826D9B011C
:10559000AC0160E070E08AE794E40E94E96C9B0152
:1055A000AC01C501B4010E94FC6E20E030E040E790
:1055B00052E40E94FC6E4B015C01B101882777FD2B
:1055C0008095982F0E94846DA30192010E94FC6E29
:1055D0009B01AC01C501B4010E94E96CED81FE8123
:1055E0006287738784879587C2A2D3A2E4A2F5A2BB
:1055F0000E944064F80160837183828393832696BE
:105600000FB6F894DEBF0FBECDBFDF91CF911F91D3
:105610000F91FF90EF90DF90CF90BF90AF909F9051
:105620008F907F906F905F904F903F902F90089554
:10563000AF92BF92CF92DF92EF92FF920F931F93A0
:10564000CF93DF9300D01F92CDB7DEB75C01FC0192
:1056500066A177A180A591A502811381268937894A
:10566000408D518D29833A834B835C830E94846DE6
:105670006B017C01B801882777FD8095982F0E94E7
:10568000846D29813A814B815C810E94FC6E9B0173
:10569000AC01C701B6010E94E96C20E030E044EBA8
:1056A00053E40E94FC6E0E94516DF501628F738F6E
:1056B000848F958F0F900F900F900F90DF91CF9167
:1056C0001F910F91FF90EF90DF90CF90BF90AF9020
:1056D0000895FC01628D738D848D958D0895FC0174
:1056E00081E08083818346875787608B718BE65981
:1056F000FF4F10820895CF92DF92EF920F931F9386
:10570000FC0106871787208B318BDC01A459BF4F22
:10571000EC9212971C9281E080831182468F578F02
:1057200060A371A35496CD92DC92468D578D60A1F3
:1057300071A1028D138D248D358D401B510B620B91
:10574000730BE559FF4F141615061606170614F4C9
:10575000808301C010821F910F91EF90DF90CF9056
:1057600008958F929F92AF92BF92CF92DF92EF9265
:10577000FF920F931F93FC01828C938CA48CB58CA9
:10578000840E951EA61EB71E868E978EA0A2B1A26D
:10579000468D578D60A171A1AEDF1F910F91FF90D3
:1057A000EF90DF90CF90BF90AF909F908F90089533
:1057B000CF92DF92EF92FF920F931F93FC0142A7CB
:1057C00053A764A775A706A717A720AB31ABC2AA3A
:1057D000D3AAE4AAF5AA1F910F91FF90EF90DF9052
:1057E000CF900895CF92DF92EF92FF920F931F9385
:1057F000FC01E65BFF4F40835183628373833496E1
:1058000000831183228333833496C082D182E28263
:10581000F3821F910F91FF90EF90DF90CF9008954A
:10582000FC01738362830895CF93DF93EC01882793
:1058300077FD8095982F0E94846D6E8B7F8B888F6B
:10584000998FDF91CF910895FC01608308952F9285
:105850003F924F925F926F927F928F929F92AF9200
:10586000BF92CF92DF92EF92FF920F931F93CF934D
:10587000DF9300D01F92CDB7DEB71C01DC015E962E
:105880006D917D918D919C9191975A960D911D915D
:105890002D913C915D97601B710B820B930B0E94C5
:1058A000846D6B017C015101BAE6AB0EB11CF501B0
:1058B000808181010C581F4F8111ABC131968081CD
:1058C00020E030E0A901882339F0C701B6010E9429
:1058D000E56C87FF32C006C0C701B6010E94AC6EFE
:1058E00018165CF5D1011A962D913D914D915C9160
:1058F0001D97F101EE5AFF4F608171818281938182
:105900000E94FC6EDC01CB01B058F101E65AFF4F5A
:1059100080839183A283B38360817181828193812B
:105920000E94516DF8017183608321E0D5012C93B1
:10593000F10175836483CB01B7C220E030E0A90197
:10594000C701B6010E94AC6E26013701181624F07B
:1059500077FA709477F87094D1011E966D917D91CD
:105960008D919C91519720E030E040EC50E40E94F2
:10597000FC6E9B01AC01C301B2010E94AC6E87FFBB
:10598000E5C120E030E0A901C701B6010E94AC6E7C
:1059900018165CF420E030E040E251E4C701B601A3
:1059A0000E94AC6E18165CF034C120E030E040E29A
:1059B00051ECC701B6010E94E56C87FF2AC1F101D5
:1059C000468457846088718820E030E040E251E4EA
:1059D000C701B6010E941E6C4B015C0120E030E063
:1059E00040EC50E4C301B2010E94FC6EA501940199
:1059F0000E94FC6E20E030E0A9010E94AC6E1816F7
:105A000094F4D1011E966D917D918D919C91519749
:105A100020E030E040EC50E40E94FC6EA5019401CF
:105A20000E94FC6E10C0F10166857785808991899E
:105A300020E030E040EC50E40E94FC6EA5019401AF
:105A40000E94FC6E90580E94AF6F20E030E040EC66
:105A500050E40E94E96C2B013C01D1011A968D9013
:105A60009D90AD90BC901D9720E030E0A901C7014A
:105A7000B6010E94AC6EA701960118160CF05058A2
:105A8000B1016E5A7F4FDB018D919D910D90BC91BC
:105A9000A02D89839A83AB83BC83C701B6010E9482
:105AA000E96C9B01AC01C301B2010E94FC6E9B0139
:105AB000AC01C501B4010E941E6C9B01AC0169815F
:105AC0007A818B819C810E94FC6E4B015C0120E0FD
:105AD00030E040EA51EC0E94E56C87FD11C020E007
